{
	"01/ballot.sol": {
		"Inbox": {
			"abi": [
				{
					"inputs": [
						{
							"internalType": "string",
							"name": "initialMessage",
							"type": "string"
						}
					],
					"stateMutability": "nonpayable",
					"type": "constructor"
				},
				{
					"inputs": [
						{
							"internalType": "int256",
							"name": "a",
							"type": "int256"
						},
						{
							"internalType": "int256",
							"name": "b",
							"type": "int256"
						}
					],
					"name": "doMath",
					"outputs": [],
					"stateMutability": "pure",
					"type": "function"
				},
				{
					"inputs": [],
					"name": "message",
					"outputs": [
						{
							"internalType": "string",
							"name": "",
							"type": "string"
						}
					],
					"stateMutability": "view",
					"type": "function"
				},
				{
					"inputs": [
						{
							"internalType": "string",
							"name": "newMessage",
							"type": "string"
						}
					],
					"name": "setMessage",
					"outputs": [],
					"stateMutability": "nonpayable",
					"type": "function"
				}
			],
			"devdoc": {
				"kind": "dev",
				"methods": {},
				"version": 1
			},
			"evm": {
				"assembly": "    /* \"01/ballot.sol\":70:422  contract Inbox {... */\n  mstore(0x40, 0x80)\n    /* \"01/ballot.sol\":119:202  constructor(string memory initialMessage) {... */\n  callvalue\n  dup1\n  iszero\n  tag_1\n  jumpi\n  0x00\n  dup1\n  revert\ntag_1:\n  pop\n  mload(0x40)\n  sub(codesize, bytecodeSize)\n  dup1\n  bytecodeSize\n  dup4\n  codecopy\n  dup2\n  dup2\n  add\n  0x40\n  mstore\n  dup2\n  add\n  swap1\n  tag_2\n  swap2\n  swap1\n  tag_3\n  jump\t// in\ntag_2:\n    /* \"01/ballot.sol\":181:195  initialMessage */\n  dup1\n    /* \"01/ballot.sol\":171:178  message */\n  0x00\n    /* \"01/ballot.sol\":171:195  message = initialMessage */\n  swap1\n  dup1\n  mload\n  swap1\n  0x20\n  add\n  swap1\n  tag_6\n  swap3\n  swap2\n  swap1\n  tag_7\n  jump\t// in\ntag_6:\n  pop\n    /* \"01/ballot.sol\":119:202  constructor(string memory initialMessage) {... */\n  pop\n    /* \"01/ballot.sol\":70:422  contract Inbox {... */\n  jump(tag_8)\ntag_7:\n  dup3\n  dup1\n  sload\n  tag_9\n  swap1\n  tag_10\n  jump\t// in\ntag_9:\n  swap1\n  0x00\n  mstore\n  keccak256(0x00, 0x20)\n  swap1\n  0x1f\n  add\n  0x20\n  swap1\n  div\n  dup2\n  add\n  swap3\n  dup3\n  tag_12\n  jumpi\n  0x00\n  dup6\n  sstore\n  jump(tag_11)\ntag_12:\n  dup3\n  0x1f\n  lt\n  tag_13\n  jumpi\n  dup1\n  mload\n  not(0xff)\n  and\n  dup4\n  dup1\n  add\n  or\n  dup6\n  sstore\n  jump(tag_11)\ntag_13:\n  dup3\n  dup1\n  add\n  0x01\n  add\n  dup6\n  sstore\n  dup3\n  iszero\n  tag_11\n  jumpi\n  swap2\n  dup3\n  add\ntag_14:\n  dup3\n  dup2\n  gt\n  iszero\n  tag_15\n  jumpi\n  dup3\n  mload\n  dup3\n  sstore\n  swap2\n  0x20\n  add\n  swap2\n  swap1\n  0x01\n  add\n  swap1\n  jump(tag_14)\ntag_15:\ntag_11:\n  pop\n  swap1\n  pop\n  tag_16\n  swap2\n  swap1\n  tag_17\n  jump\t// in\ntag_16:\n  pop\n  swap1\n  jump\t// out\ntag_17:\ntag_18:\n  dup1\n  dup3\n  gt\n  iszero\n  tag_19\n  jumpi\n  0x00\n  dup2\n  0x00\n  swap1\n  sstore\n  pop\n  0x01\n  add\n  jump(tag_18)\ntag_19:\n  pop\n  swap1\n  jump\t// out\n    /* \"#utility.yul\":7:428   */\ntag_21:\n    /* \"#utility.yul\":96:101   */\n  0x00\n    /* \"#utility.yul\":121:187   */\n  tag_23\n    /* \"#utility.yul\":137:186   */\n  tag_24\n    /* \"#utility.yul\":179:185   */\n  dup5\n    /* \"#utility.yul\":137:186   */\n  tag_25\n  jump\t// in\ntag_24:\n    /* \"#utility.yul\":121:187   */\n  tag_26\n  jump\t// in\ntag_23:\n    /* \"#utility.yul\":112:187   */\n  swap1\n  pop\n    /* \"#utility.yul\":210:216   */\n  dup3\n    /* \"#utility.yul\":203:208   */\n  dup2\n    /* \"#utility.yul\":196:217   */\n  mstore\n    /* \"#utility.yul\":248:252   */\n  0x20\n    /* \"#utility.yul\":241:246   */\n  dup2\n    /* \"#utility.yul\":237:253   */\n  add\n    /* \"#utility.yul\":286:289   */\n  dup5\n    /* \"#utility.yul\":277:283   */\n  dup5\n    /* \"#utility.yul\":272:275   */\n  dup5\n    /* \"#utility.yul\":268:284   */\n  add\n    /* \"#utility.yul\":265:290   */\n  gt\n    /* \"#utility.yul\":262:374   */\n  iszero\n  tag_27\n  jumpi\n    /* \"#utility.yul\":293:372   */\n  tag_28\n  tag_29\n  jump\t// in\ntag_28:\n    /* \"#utility.yul\":262:374   */\ntag_27:\n    /* \"#utility.yul\":383:422   */\n  tag_30\n    /* \"#utility.yul\":415:421   */\n  dup5\n    /* \"#utility.yul\":410:413   */\n  dup3\n    /* \"#utility.yul\":405:408   */\n  dup6\n    /* \"#utility.yul\":383:422   */\n  tag_31\n  jump\t// in\ntag_30:\n    /* \"#utility.yul\":102:428   */\n  pop\n    /* \"#utility.yul\":7:428   */\n  swap4\n  swap3\n  pop\n  pop\n  pop\n  jump\t// out\n    /* \"#utility.yul\":448:803   */\ntag_32:\n    /* \"#utility.yul\":515:520   */\n  0x00\n    /* \"#utility.yul\":564:567   */\n  dup3\n    /* \"#utility.yul\":557:561   */\n  0x1f\n    /* \"#utility.yul\":549:555   */\n  dup4\n    /* \"#utility.yul\":545:562   */\n  add\n    /* \"#utility.yul\":541:568   */\n  slt\n    /* \"#utility.yul\":531:653   */\n  tag_34\n  jumpi\n    /* \"#utility.yul\":572:651   */\n  tag_35\n  tag_36\n  jump\t// in\ntag_35:\n    /* \"#utility.yul\":531:653   */\ntag_34:\n    /* \"#utility.yul\":682:688   */\n  dup2\n    /* \"#utility.yul\":676:689   */\n  mload\n    /* \"#utility.yul\":707:797   */\n  tag_37\n    /* \"#utility.yul\":793:796   */\n  dup5\n    /* \"#utility.yul\":785:791   */\n  dup3\n    /* \"#utility.yul\":778:782   */\n  0x20\n    /* \"#utility.yul\":770:776   */\n  dup7\n    /* \"#utility.yul\":766:783   */\n  add\n    /* \"#utility.yul\":707:797   */\n  tag_21\n  jump\t// in\ntag_37:\n    /* \"#utility.yul\":698:797   */\n  swap2\n  pop\n    /* \"#utility.yul\":521:803   */\n  pop\n    /* \"#utility.yul\":448:803   */\n  swap3\n  swap2\n  pop\n  pop\n  jump\t// out\n    /* \"#utility.yul\":809:1333   */\ntag_3:\n    /* \"#utility.yul\":889:895   */\n  0x00\n    /* \"#utility.yul\":938:940   */\n  0x20\n    /* \"#utility.yul\":926:935   */\n  dup3\n    /* \"#utility.yul\":917:924   */\n  dup5\n    /* \"#utility.yul\":913:936   */\n  sub\n    /* \"#utility.yul\":909:941   */\n  slt\n    /* \"#utility.yul\":906:1025   */\n  iszero\n  tag_39\n  jumpi\n    /* \"#utility.yul\":944:1023   */\n  tag_40\n  tag_41\n  jump\t// in\ntag_40:\n    /* \"#utility.yul\":906:1025   */\ntag_39:\n    /* \"#utility.yul\":1085:1086   */\n  0x00\n    /* \"#utility.yul\":1074:1083   */\n  dup3\n    /* \"#utility.yul\":1070:1087   */\n  add\n    /* \"#utility.yul\":1064:1088   */\n  mload\n    /* \"#utility.yul\":1115:1133   */\n  0xffffffffffffffff\n    /* \"#utility.yul\":1107:1113   */\n  dup2\n    /* \"#utility.yul\":1104:1134   */\n  gt\n    /* \"#utility.yul\":1101:1218   */\n  iszero\n  tag_42\n  jumpi\n    /* \"#utility.yul\":1137:1216   */\n  tag_43\n  tag_44\n  jump\t// in\ntag_43:\n    /* \"#utility.yul\":1101:1218   */\ntag_42:\n    /* \"#utility.yul\":1242:1316   */\n  tag_45\n    /* \"#utility.yul\":1308:1315   */\n  dup5\n    /* \"#utility.yul\":1299:1305   */\n  dup3\n    /* \"#utility.yul\":1288:1297   */\n  dup6\n    /* \"#utility.yul\":1284:1306   */\n  add\n    /* \"#utility.yul\":1242:1316   */\n  tag_32\n  jump\t// in\ntag_45:\n    /* \"#utility.yul\":1232:1316   */\n  swap2\n  pop\n    /* \"#utility.yul\":1035:1326   */\n  pop\n    /* \"#utility.yul\":809:1333   */\n  swap3\n  swap2\n  pop\n  pop\n  jump\t// out\n    /* \"#utility.yul\":1339:1468   */\ntag_26:\n    /* \"#utility.yul\":1373:1379   */\n  0x00\n    /* \"#utility.yul\":1400:1420   */\n  tag_47\n  tag_48\n  jump\t// in\ntag_47:\n    /* \"#utility.yul\":1390:1420   */\n  swap1\n  pop\n    /* \"#utility.yul\":1429:1462   */\n  tag_49\n    /* \"#utility.yul\":1457:1461   */\n  dup3\n    /* \"#utility.yul\":1449:1455   */\n  dup3\n    /* \"#utility.yul\":1429:1462   */\n  tag_50\n  jump\t// in\ntag_49:\n    /* \"#utility.yul\":1339:1468   */\n  swap2\n  swap1\n  pop\n  jump\t// out\n    /* \"#utility.yul\":1474:1549   */\ntag_48:\n    /* \"#utility.yul\":1507:1513   */\n  0x00\n    /* \"#utility.yul\":1540:1542   */\n  0x40\n    /* \"#utility.yul\":1534:1543   */\n  mload\n    /* \"#utility.yul\":1524:1543   */\n  swap1\n  pop\n    /* \"#utility.yul\":1474:1549   */\n  swap1\n  jump\t// out\n    /* \"#utility.yul\":1555:1863   */\ntag_25:\n    /* \"#utility.yul\":1617:1621   */\n  0x00\n    /* \"#utility.yul\":1707:1725   */\n  0xffffffffffffffff\n    /* \"#utility.yul\":1699:1705   */\n  dup3\n    /* \"#utility.yul\":1696:1726   */\n  gt\n    /* \"#utility.yul\":1693:1749   */\n  iszero\n  tag_53\n  jumpi\n    /* \"#utility.yul\":1729:1747   */\n  tag_54\n  tag_55\n  jump\t// in\ntag_54:\n    /* \"#utility.yul\":1693:1749   */\ntag_53:\n    /* \"#utility.yul\":1767:1796   */\n  tag_56\n    /* \"#utility.yul\":1789:1795   */\n  dup3\n    /* \"#utility.yul\":1767:1796   */\n  tag_57\n  jump\t// in\ntag_56:\n    /* \"#utility.yul\":1759:1796   */\n  swap1\n  pop\n    /* \"#utility.yul\":1851:1855   */\n  0x20\n    /* \"#utility.yul\":1845:1849   */\n  dup2\n    /* \"#utility.yul\":1841:1856   */\n  add\n    /* \"#utility.yul\":1833:1856   */\n  swap1\n  pop\n    /* \"#utility.yul\":1555:1863   */\n  swap2\n  swap1\n  pop\n  jump\t// out\n    /* \"#utility.yul\":1869:2176   */\ntag_31:\n    /* \"#utility.yul\":1937:1938   */\n  0x00\n    /* \"#utility.yul\":1947:2060   */\ntag_59:\n    /* \"#utility.yul\":1961:1967   */\n  dup4\n    /* \"#utility.yul\":1958:1959   */\n  dup2\n    /* \"#utility.yul\":1955:1968   */\n  lt\n    /* \"#utility.yul\":1947:2060   */\n  iszero\n  tag_61\n  jumpi\n    /* \"#utility.yul\":2046:2047   */\n  dup1\n    /* \"#utility.yul\":2041:2044   */\n  dup3\n    /* \"#utility.yul\":2037:2048   */\n  add\n    /* \"#utility.yul\":2031:2049   */\n  mload\n    /* \"#utility.yul\":2027:2028   */\n  dup2\n    /* \"#utility.yul\":2022:2025   */\n  dup5\n    /* \"#utility.yul\":2018:2029   */\n  add\n    /* \"#utility.yul\":2011:2050   */\n  mstore\n    /* \"#utility.yul\":1983:1985   */\n  0x20\n    /* \"#utility.yul\":1980:1981   */\n  dup2\n    /* \"#utility.yul\":1976:1986   */\n  add\n    /* \"#utility.yul\":1971:1986   */\n  swap1\n  pop\n    /* \"#utility.yul\":1947:2060   */\n  jump(tag_59)\ntag_61:\n    /* \"#utility.yul\":2078:2084   */\n  dup4\n    /* \"#utility.yul\":2075:2076   */\n  dup2\n    /* \"#utility.yul\":2072:2085   */\n  gt\n    /* \"#utility.yul\":2069:2170   */\n  iszero\n  tag_62\n  jumpi\n    /* \"#utility.yul\":2158:2159   */\n  0x00\n    /* \"#utility.yul\":2149:2155   */\n  dup5\n    /* \"#utility.yul\":2144:2147   */\n  dup5\n    /* \"#utility.yul\":2140:2156   */\n  add\n    /* \"#utility.yul\":2133:2160   */\n  mstore\n    /* \"#utility.yul\":2069:2170   */\ntag_62:\n    /* \"#utility.yul\":1918:2176   */\n  pop\n    /* \"#utility.yul\":1869:2176   */\n  pop\n  pop\n  pop\n  jump\t// out\n    /* \"#utility.yul\":2182:2502   */\ntag_10:\n    /* \"#utility.yul\":2226:2232   */\n  0x00\n    /* \"#utility.yul\":2263:2264   */\n  0x02\n    /* \"#utility.yul\":2257:2261   */\n  dup3\n    /* \"#utility.yul\":2253:2265   */\n  div\n    /* \"#utility.yul\":2243:2265   */\n  swap1\n  pop\n    /* \"#utility.yul\":2310:2311   */\n  0x01\n    /* \"#utility.yul\":2304:2308   */\n  dup3\n    /* \"#utility.yul\":2300:2312   */\n  and\n    /* \"#utility.yul\":2331:2349   */\n  dup1\n    /* \"#utility.yul\":2321:2402   */\n  tag_64\n  jumpi\n    /* \"#utility.yul\":2387:2391   */\n  0x7f\n    /* \"#utility.yul\":2379:2385   */\n  dup3\n    /* \"#utility.yul\":2375:2392   */\n  and\n    /* \"#utility.yul\":2365:2392   */\n  swap2\n  pop\n    /* \"#utility.yul\":2321:2402   */\ntag_64:\n    /* \"#utility.yul\":2449:2451   */\n  0x20\n    /* \"#utility.yul\":2441:2447   */\n  dup3\n    /* \"#utility.yul\":2438:2452   */\n  lt\n    /* \"#utility.yul\":2418:2436   */\n  dup2\n    /* \"#utility.yul\":2415:2453   */\n  eq\n    /* \"#utility.yul\":2412:2496   */\n  iszero\n  tag_65\n  jumpi\n    /* \"#utility.yul\":2468:2486   */\n  tag_66\n  tag_67\n  jump\t// in\ntag_66:\n    /* \"#utility.yul\":2412:2496   */\ntag_65:\n    /* \"#utility.yul\":2233:2502   */\n  pop\n    /* \"#utility.yul\":2182:2502   */\n  swap2\n  swap1\n  pop\n  jump\t// out\n    /* \"#utility.yul\":2508:2789   */\ntag_50:\n    /* \"#utility.yul\":2591:2618   */\n  tag_69\n    /* \"#utility.yul\":2613:2617   */\n  dup3\n    /* \"#utility.yul\":2591:2618   */\n  tag_57\n  jump\t// in\ntag_69:\n    /* \"#utility.yul\":2583:2589   */\n  dup2\n    /* \"#utility.yul\":2579:2619   */\n  add\n    /* \"#utility.yul\":2721:2727   */\n  dup2\n    /* \"#utility.yul\":2709:2719   */\n  dup2\n    /* \"#utility.yul\":2706:2728   */\n  lt\n    /* \"#utility.yul\":2685:2703   */\n  0xffffffffffffffff\n    /* \"#utility.yul\":2673:2683   */\n  dup3\n    /* \"#utility.yul\":2670:2704   */\n  gt\n    /* \"#utility.yul\":2667:2729   */\n  or\n    /* \"#utility.yul\":2664:2752   */\n  iszero\n  tag_70\n  jumpi\n    /* \"#utility.yul\":2732:2750   */\n  tag_71\n  tag_55\n  jump\t// in\ntag_71:\n    /* \"#utility.yul\":2664:2752   */\ntag_70:\n    /* \"#utility.yul\":2772:2782   */\n  dup1\n    /* \"#utility.yul\":2768:2770   */\n  0x40\n    /* \"#utility.yul\":2761:2783   */\n  mstore\n    /* \"#utility.yul\":2551:2789   */\n  pop\n    /* \"#utility.yul\":2508:2789   */\n  pop\n  pop\n  jump\t// out\n    /* \"#utility.yul\":2795:2975   */\ntag_67:\n    /* \"#utility.yul\":2843:2920   */\n  0x4e487b7100000000000000000000000000000000000000000000000000000000\n    /* \"#utility.yul\":2840:2841   */\n  0x00\n    /* \"#utility.yul\":2833:2921   */\n  mstore\n    /* \"#utility.yul\":2940:2944   */\n  0x22\n    /* \"#utility.yul\":2937:2938   */\n  0x04\n    /* \"#utility.yul\":2930:2945   */\n  mstore\n    /* \"#utility.yul\":2964:2968   */\n  0x24\n    /* \"#utility.yul\":2961:2962   */\n  0x00\n    /* \"#utility.yul\":2954:2969   */\n  revert\n    /* \"#utility.yul\":2981:3161   */\ntag_55:\n    /* \"#utility.yul\":3029:3106   */\n  0x4e487b7100000000000000000000000000000000000000000000000000000000\n    /* \"#utility.yul\":3026:3027   */\n  0x00\n    /* \"#utility.yul\":3019:3107   */\n  mstore\n    /* \"#utility.yul\":3126:3130   */\n  0x41\n    /* \"#utility.yul\":3123:3124   */\n  0x04\n    /* \"#utility.yul\":3116:3131   */\n  mstore\n    /* \"#utility.yul\":3150:3154   */\n  0x24\n    /* \"#utility.yul\":3147:3148   */\n  0x00\n    /* \"#utility.yul\":3140:3155   */\n  revert\n    /* \"#utility.yul\":3167:3284   */\ntag_36:\n    /* \"#utility.yul\":3276:3277   */\n  0x00\n    /* \"#utility.yul\":3273:3274   */\n  dup1\n    /* \"#utility.yul\":3266:3278   */\n  revert\n    /* \"#utility.yul\":3290:3407   */\ntag_29:\n    /* \"#utility.yul\":3399:3400   */\n  0x00\n    /* \"#utility.yul\":3396:3397   */\n  dup1\n    /* \"#utility.yul\":3389:3401   */\n  revert\n    /* \"#utility.yul\":3413:3530   */\ntag_44:\n    /* \"#utility.yul\":3522:3523   */\n  0x00\n    /* \"#utility.yul\":3519:3520   */\n  dup1\n    /* \"#utility.yul\":3512:3524   */\n  revert\n    /* \"#utility.yul\":3536:3653   */\ntag_41:\n    /* \"#utility.yul\":3645:3646   */\n  0x00\n    /* \"#utility.yul\":3642:3643   */\n  dup1\n    /* \"#utility.yul\":3635:3647   */\n  revert\n    /* \"#utility.yul\":3659:3761   */\ntag_57:\n    /* \"#utility.yul\":3700:3706   */\n  0x00\n    /* \"#utility.yul\":3751:3753   */\n  0x1f\n    /* \"#utility.yul\":3747:3754   */\n  not\n    /* \"#utility.yul\":3742:3744   */\n  0x1f\n    /* \"#utility.yul\":3735:3740   */\n  dup4\n    /* \"#utility.yul\":3731:3745   */\n  add\n    /* \"#utility.yul\":3727:3755   */\n  and\n    /* \"#utility.yul\":3717:3755   */\n  swap1\n  pop\n    /* \"#utility.yul\":3659:3761   */\n  swap2\n  swap1\n  pop\n  jump\t// out\n    /* \"01/ballot.sol\":70:422  contract Inbox {... */\ntag_8:\n  dataSize(sub_0)\n  dup1\n  dataOffset(sub_0)\n  0x00\n  codecopy\n  0x00\n  return\nstop\n\nsub_0: assembly {\n        /* \"01/ballot.sol\":70:422  contract Inbox {... */\n      mstore(0x40, 0x80)\n      callvalue\n      dup1\n      iszero\n      tag_1\n      jumpi\n      0x00\n      dup1\n      revert\n    tag_1:\n      pop\n      jumpi(tag_2, lt(calldatasize, 0x04))\n      shr(0xe0, calldataload(0x00))\n      dup1\n      0x368b8772\n      eq\n      tag_3\n      jumpi\n      dup1\n      0xd545dd8c\n      eq\n      tag_4\n      jumpi\n      dup1\n      0xe21f37ce\n      eq\n      tag_5\n      jumpi\n    tag_2:\n      0x00\n      dup1\n      revert\n        /* \"01/ballot.sol\":208:298  function setMessage(string memory newMessage) public {... */\n    tag_3:\n      tag_6\n      0x04\n      dup1\n      calldatasize\n      sub\n      dup2\n      add\n      swap1\n      tag_7\n      swap2\n      swap1\n      tag_8\n      jump\t// in\n    tag_7:\n      tag_9\n      jump\t// in\n    tag_6:\n      stop\n        /* \"01/ballot.sol\":304:420  function doMath(int256 a, int256 b) public pure {... */\n    tag_4:\n      tag_10\n      0x04\n      dup1\n      calldatasize\n      sub\n      dup2\n      add\n      swap1\n      tag_11\n      swap2\n      swap1\n      tag_12\n      jump\t// in\n    tag_11:\n      tag_13\n      jump\t// in\n    tag_10:\n      stop\n        /* \"01/ballot.sol\":91:112  string public message */\n    tag_5:\n      tag_14\n      tag_15\n      jump\t// in\n    tag_14:\n      mload(0x40)\n      tag_16\n      swap2\n      swap1\n      tag_17\n      jump\t// in\n    tag_16:\n      mload(0x40)\n      dup1\n      swap2\n      sub\n      swap1\n      return\n        /* \"01/ballot.sol\":208:298  function setMessage(string memory newMessage) public {... */\n    tag_9:\n        /* \"01/ballot.sol\":281:291  newMessage */\n      dup1\n        /* \"01/ballot.sol\":271:278  message */\n      0x00\n        /* \"01/ballot.sol\":271:291  message = newMessage */\n      swap1\n      dup1\n      mload\n      swap1\n      0x20\n      add\n      swap1\n      tag_19\n      swap3\n      swap2\n      swap1\n      tag_20\n      jump\t// in\n    tag_19:\n      pop\n        /* \"01/ballot.sol\":208:298  function setMessage(string memory newMessage) public {... */\n      pop\n      jump\t// out\n        /* \"01/ballot.sol\":304:420  function doMath(int256 a, int256 b) public pure {... */\n    tag_13:\n        /* \"01/ballot.sol\":366:367  b */\n      dup1\n        /* \"01/ballot.sol\":362:363  a */\n      dup3\n        /* \"01/ballot.sol\":362:367  a + b */\n      tag_22\n      swap2\n      swap1\n      tag_23\n      jump\t// in\n    tag_22:\n      pop\n        /* \"01/ballot.sol\":381:382  a */\n      dup2\n        /* \"01/ballot.sol\":377:378  b */\n      dup2\n        /* \"01/ballot.sol\":377:382  b - a */\n      tag_24\n      swap2\n      swap1\n      tag_25\n      jump\t// in\n    tag_24:\n      pop\n        /* \"01/ballot.sol\":396:397  b */\n      dup1\n        /* \"01/ballot.sol\":392:393  a */\n      dup3\n        /* \"01/ballot.sol\":392:397  a * b */\n      tag_26\n      swap2\n      swap1\n      tag_27\n      jump\t// in\n    tag_26:\n      pop\n        /* \"01/ballot.sol\":304:420  function doMath(int256 a, int256 b) public pure {... */\n      pop\n      pop\n      jump\t// out\n        /* \"01/ballot.sol\":91:112  string public message */\n    tag_15:\n      0x00\n      dup1\n      sload\n      tag_28\n      swap1\n      tag_29\n      jump\t// in\n    tag_28:\n      dup1\n      0x1f\n      add\n      0x20\n      dup1\n      swap2\n      div\n      mul\n      0x20\n      add\n      mload(0x40)\n      swap1\n      dup2\n      add\n      0x40\n      mstore\n      dup1\n      swap3\n      swap2\n      swap1\n      dup2\n      dup2\n      mstore\n      0x20\n      add\n      dup3\n      dup1\n      sload\n      tag_30\n      swap1\n      tag_29\n      jump\t// in\n    tag_30:\n      dup1\n      iszero\n      tag_31\n      jumpi\n      dup1\n      0x1f\n      lt\n      tag_32\n      jumpi\n      0x0100\n      dup1\n      dup4\n      sload\n      div\n      mul\n      dup4\n      mstore\n      swap2\n      0x20\n      add\n      swap2\n      jump(tag_31)\n    tag_32:\n      dup3\n      add\n      swap2\n      swap1\n      0x00\n      mstore\n      keccak256(0x00, 0x20)\n      swap1\n    tag_33:\n      dup2\n      sload\n      dup2\n      mstore\n      swap1\n      0x01\n      add\n      swap1\n      0x20\n      add\n      dup1\n      dup4\n      gt\n      tag_33\n      jumpi\n      dup3\n      swap1\n      sub\n      0x1f\n      and\n      dup3\n      add\n      swap2\n    tag_31:\n      pop\n      pop\n      pop\n      pop\n      pop\n      dup2\n      jump\t// out\n    tag_20:\n      dup3\n      dup1\n      sload\n      tag_34\n      swap1\n      tag_29\n      jump\t// in\n    tag_34:\n      swap1\n      0x00\n      mstore\n      keccak256(0x00, 0x20)\n      swap1\n      0x1f\n      add\n      0x20\n      swap1\n      div\n      dup2\n      add\n      swap3\n      dup3\n      tag_36\n      jumpi\n      0x00\n      dup6\n      sstore\n      jump(tag_35)\n    tag_36:\n      dup3\n      0x1f\n      lt\n      tag_37\n      jumpi\n      dup1\n      mload\n      not(0xff)\n      and\n      dup4\n      dup1\n      add\n      or\n      dup6\n      sstore\n      jump(tag_35)\n    tag_37:\n      dup3\n      dup1\n      add\n      0x01\n      add\n      dup6\n      sstore\n      dup3\n      iszero\n      tag_35\n      jumpi\n      swap2\n      dup3\n      add\n    tag_38:\n      dup3\n      dup2\n      gt\n      iszero\n      tag_39\n      jumpi\n      dup3\n      mload\n      dup3\n      sstore\n      swap2\n      0x20\n      add\n      swap2\n      swap1\n      0x01\n      add\n      swap1\n      jump(tag_38)\n    tag_39:\n    tag_35:\n      pop\n      swap1\n      pop\n      tag_40\n      swap2\n      swap1\n      tag_41\n      jump\t// in\n    tag_40:\n      pop\n      swap1\n      jump\t// out\n    tag_41:\n    tag_42:\n      dup1\n      dup3\n      gt\n      iszero\n      tag_43\n      jumpi\n      0x00\n      dup2\n      0x00\n      swap1\n      sstore\n      pop\n      0x01\n      add\n      jump(tag_42)\n    tag_43:\n      pop\n      swap1\n      jump\t// out\n        /* \"#utility.yul\":7:419   */\n    tag_45:\n        /* \"#utility.yul\":85:90   */\n      0x00\n        /* \"#utility.yul\":110:176   */\n      tag_47\n        /* \"#utility.yul\":126:175   */\n      tag_48\n        /* \"#utility.yul\":168:174   */\n      dup5\n        /* \"#utility.yul\":126:175   */\n      tag_49\n      jump\t// in\n    tag_48:\n        /* \"#utility.yul\":110:176   */\n      tag_50\n      jump\t// in\n    tag_47:\n        /* \"#utility.yul\":101:176   */\n      swap1\n      pop\n        /* \"#utility.yul\":199:205   */\n      dup3\n        /* \"#utility.yul\":192:197   */\n      dup2\n        /* \"#utility.yul\":185:206   */\n      mstore\n        /* \"#utility.yul\":237:241   */\n      0x20\n        /* \"#utility.yul\":230:235   */\n      dup2\n        /* \"#utility.yul\":226:242   */\n      add\n        /* \"#utility.yul\":275:278   */\n      dup5\n        /* \"#utility.yul\":266:272   */\n      dup5\n        /* \"#utility.yul\":261:264   */\n      dup5\n        /* \"#utility.yul\":257:273   */\n      add\n        /* \"#utility.yul\":254:279   */\n      gt\n        /* \"#utility.yul\":251:363   */\n      iszero\n      tag_51\n      jumpi\n        /* \"#utility.yul\":282:361   */\n      tag_52\n      tag_53\n      jump\t// in\n    tag_52:\n        /* \"#utility.yul\":251:363   */\n    tag_51:\n        /* \"#utility.yul\":372:413   */\n      tag_54\n        /* \"#utility.yul\":406:412   */\n      dup5\n        /* \"#utility.yul\":401:404   */\n      dup3\n        /* \"#utility.yul\":396:399   */\n      dup6\n        /* \"#utility.yul\":372:413   */\n      tag_55\n      jump\t// in\n    tag_54:\n        /* \"#utility.yul\":91:419   */\n      pop\n        /* \"#utility.yul\":7:419   */\n      swap4\n      swap3\n      pop\n      pop\n      pop\n      jump\t// out\n        /* \"#utility.yul\":425:562   */\n    tag_56:\n        /* \"#utility.yul\":470:475   */\n      0x00\n        /* \"#utility.yul\":508:514   */\n      dup2\n        /* \"#utility.yul\":495:515   */\n      calldataload\n        /* \"#utility.yul\":486:515   */\n      swap1\n      pop\n        /* \"#utility.yul\":524:556   */\n      tag_58\n        /* \"#utility.yul\":550:555   */\n      dup2\n        /* \"#utility.yul\":524:556   */\n      tag_59\n      jump\t// in\n    tag_58:\n        /* \"#utility.yul\":425:562   */\n      swap3\n      swap2\n      pop\n      pop\n      jump\t// out\n        /* \"#utility.yul\":582:922   */\n    tag_60:\n        /* \"#utility.yul\":638:643   */\n      0x00\n        /* \"#utility.yul\":687:690   */\n      dup3\n        /* \"#utility.yul\":680:684   */\n      0x1f\n        /* \"#utility.yul\":672:678   */\n      dup4\n        /* \"#utility.yul\":668:685   */\n      add\n        /* \"#utility.yul\":664:691   */\n      slt\n        /* \"#utility.yul\":654:776   */\n      tag_62\n      jumpi\n        /* \"#utility.yul\":695:774   */\n      tag_63\n      tag_64\n      jump\t// in\n    tag_63:\n        /* \"#utility.yul\":654:776   */\n    tag_62:\n        /* \"#utility.yul\":812:818   */\n      dup2\n        /* \"#utility.yul\":799:819   */\n      calldataload\n        /* \"#utility.yul\":837:916   */\n      tag_65\n        /* \"#utility.yul\":912:915   */\n      dup5\n        /* \"#utility.yul\":904:910   */\n      dup3\n        /* \"#utility.yul\":897:901   */\n      0x20\n        /* \"#utility.yul\":889:895   */\n      dup7\n        /* \"#utility.yul\":885:902   */\n      add\n        /* \"#utility.yul\":837:916   */\n      tag_45\n      jump\t// in\n    tag_65:\n        /* \"#utility.yul\":828:916   */\n      swap2\n      pop\n        /* \"#utility.yul\":644:922   */\n      pop\n        /* \"#utility.yul\":582:922   */\n      swap3\n      swap2\n      pop\n      pop\n      jump\t// out\n        /* \"#utility.yul\":928:1398   */\n    tag_12:\n        /* \"#utility.yul\":994:1000   */\n      0x00\n        /* \"#utility.yul\":1002:1008   */\n      dup1\n        /* \"#utility.yul\":1051:1053   */\n      0x40\n        /* \"#utility.yul\":1039:1048   */\n      dup4\n        /* \"#utility.yul\":1030:1037   */\n      dup6\n        /* \"#utility.yul\":1026:1049   */\n      sub\n        /* \"#utility.yul\":1022:1054   */\n      slt\n        /* \"#utility.yul\":1019:1138   */\n      iszero\n      tag_67\n      jumpi\n        /* \"#utility.yul\":1057:1136   */\n      tag_68\n      tag_69\n      jump\t// in\n    tag_68:\n        /* \"#utility.yul\":1019:1138   */\n    tag_67:\n        /* \"#utility.yul\":1177:1178   */\n      0x00\n        /* \"#utility.yul\":1202:1254   */\n      tag_70\n        /* \"#utility.yul\":1246:1253   */\n      dup6\n        /* \"#utility.yul\":1237:1243   */\n      dup3\n        /* \"#utility.yul\":1226:1235   */\n      dup7\n        /* \"#utility.yul\":1222:1244   */\n      add\n        /* \"#utility.yul\":1202:1254   */\n      tag_56\n      jump\t// in\n    tag_70:\n        /* \"#utility.yul\":1192:1254   */\n      swap3\n      pop\n        /* \"#utility.yul\":1148:1264   */\n      pop\n        /* \"#utility.yul\":1303:1305   */\n      0x20\n        /* \"#utility.yul\":1329:1381   */\n      tag_71\n        /* \"#utility.yul\":1373:1380   */\n      dup6\n        /* \"#utility.yul\":1364:1370   */\n      dup3\n        /* \"#utility.yul\":1353:1362   */\n      dup7\n        /* \"#utility.yul\":1349:1371   */\n      add\n        /* \"#utility.yul\":1329:1381   */\n      tag_56\n      jump\t// in\n    tag_71:\n        /* \"#utility.yul\":1319:1381   */\n      swap2\n      pop\n        /* \"#utility.yul\":1274:1391   */\n      pop\n        /* \"#utility.yul\":928:1398   */\n      swap3\n      pop\n      swap3\n      swap1\n      pop\n      jump\t// out\n        /* \"#utility.yul\":1404:1913   */\n    tag_8:\n        /* \"#utility.yul\":1473:1479   */\n      0x00\n        /* \"#utility.yul\":1522:1524   */\n      0x20\n        /* \"#utility.yul\":1510:1519   */\n      dup3\n        /* \"#utility.yul\":1501:1508   */\n      dup5\n        /* \"#utility.yul\":1497:1520   */\n      sub\n        /* \"#utility.yul\":1493:1525   */\n      slt\n        /* \"#utility.yul\":1490:1609   */\n      iszero\n      tag_73\n      jumpi\n        /* \"#utility.yul\":1528:1607   */\n      tag_74\n      tag_69\n      jump\t// in\n    tag_74:\n        /* \"#utility.yul\":1490:1609   */\n    tag_73:\n        /* \"#utility.yul\":1676:1677   */\n      0x00\n        /* \"#utility.yul\":1665:1674   */\n      dup3\n        /* \"#utility.yul\":1661:1678   */\n      add\n        /* \"#utility.yul\":1648:1679   */\n      calldataload\n        /* \"#utility.yul\":1706:1724   */\n      0xffffffffffffffff\n        /* \"#utility.yul\":1698:1704   */\n      dup2\n        /* \"#utility.yul\":1695:1725   */\n      gt\n        /* \"#utility.yul\":1692:1809   */\n      iszero\n      tag_75\n      jumpi\n        /* \"#utility.yul\":1728:1807   */\n      tag_76\n      tag_77\n      jump\t// in\n    tag_76:\n        /* \"#utility.yul\":1692:1809   */\n    tag_75:\n        /* \"#utility.yul\":1833:1896   */\n      tag_78\n        /* \"#utility.yul\":1888:1895   */\n      dup5\n        /* \"#utility.yul\":1879:1885   */\n      dup3\n        /* \"#utility.yul\":1868:1877   */\n      dup6\n        /* \"#utility.yul\":1864:1886   */\n      add\n        /* \"#utility.yul\":1833:1896   */\n      tag_60\n      jump\t// in\n    tag_78:\n        /* \"#utility.yul\":1823:1896   */\n      swap2\n      pop\n        /* \"#utility.yul\":1619:1906   */\n      pop\n        /* \"#utility.yul\":1404:1913   */\n      swap3\n      swap2\n      pop\n      pop\n      jump\t// out\n        /* \"#utility.yul\":1919:2283   */\n    tag_79:\n        /* \"#utility.yul\":2007:2010   */\n      0x00\n        /* \"#utility.yul\":2035:2074   */\n      tag_81\n        /* \"#utility.yul\":2068:2073   */\n      dup3\n        /* \"#utility.yul\":2035:2074   */\n      tag_82\n      jump\t// in\n    tag_81:\n        /* \"#utility.yul\":2090:2161   */\n      tag_83\n        /* \"#utility.yul\":2154:2160   */\n      dup2\n        /* \"#utility.yul\":2149:2152   */\n      dup6\n        /* \"#utility.yul\":2090:2161   */\n      tag_84\n      jump\t// in\n    tag_83:\n        /* \"#utility.yul\":2083:2161   */\n      swap4\n      pop\n        /* \"#utility.yul\":2170:2222   */\n      tag_85\n        /* \"#utility.yul\":2215:2221   */\n      dup2\n        /* \"#utility.yul\":2210:2213   */\n      dup6\n        /* \"#utility.yul\":2203:2207   */\n      0x20\n        /* \"#utility.yul\":2196:2201   */\n      dup7\n        /* \"#utility.yul\":2192:2208   */\n      add\n        /* \"#utility.yul\":2170:2222   */\n      tag_86\n      jump\t// in\n    tag_85:\n        /* \"#utility.yul\":2247:2276   */\n      tag_87\n        /* \"#utility.yul\":2269:2275   */\n      dup2\n        /* \"#utility.yul\":2247:2276   */\n      tag_88\n      jump\t// in\n    tag_87:\n        /* \"#utility.yul\":2242:2245   */\n      dup5\n        /* \"#utility.yul\":2238:2277   */\n      add\n        /* \"#utility.yul\":2231:2277   */\n      swap2\n      pop\n        /* \"#utility.yul\":2011:2283   */\n      pop\n        /* \"#utility.yul\":1919:2283   */\n      swap3\n      swap2\n      pop\n      pop\n      jump\t// out\n        /* \"#utility.yul\":2289:2602   */\n    tag_17:\n        /* \"#utility.yul\":2402:2406   */\n      0x00\n        /* \"#utility.yul\":2440:2442   */\n      0x20\n        /* \"#utility.yul\":2429:2438   */\n      dup3\n        /* \"#utility.yul\":2425:2443   */\n      add\n        /* \"#utility.yul\":2417:2443   */\n      swap1\n      pop\n        /* \"#utility.yul\":2489:2498   */\n      dup2\n        /* \"#utility.yul\":2483:2487   */\n      dup2\n        /* \"#utility.yul\":2479:2499   */\n      sub\n        /* \"#utility.yul\":2475:2476   */\n      0x00\n        /* \"#utility.yul\":2464:2473   */\n      dup4\n        /* \"#utility.yul\":2460:2477   */\n      add\n        /* \"#utility.yul\":2453:2500   */\n      mstore\n        /* \"#utility.yul\":2517:2595   */\n      tag_90\n        /* \"#utility.yul\":2590:2594   */\n      dup2\n        /* \"#utility.yul\":2581:2587   */\n      dup5\n        /* \"#utility.yul\":2517:2595   */\n      tag_79\n      jump\t// in\n    tag_90:\n        /* \"#utility.yul\":2509:2595   */\n      swap1\n      pop\n        /* \"#utility.yul\":2289:2602   */\n      swap3\n      swap2\n      pop\n      pop\n      jump\t// out\n        /* \"#utility.yul\":2608:2737   */\n    tag_50:\n        /* \"#utility.yul\":2642:2648   */\n      0x00\n        /* \"#utility.yul\":2669:2689   */\n      tag_92\n      tag_93\n      jump\t// in\n    tag_92:\n        /* \"#utility.yul\":2659:2689   */\n      swap1\n      pop\n        /* \"#utility.yul\":2698:2731   */\n      tag_94\n        /* \"#utility.yul\":2726:2730   */\n      dup3\n        /* \"#utility.yul\":2718:2724   */\n      dup3\n        /* \"#utility.yul\":2698:2731   */\n      tag_95\n      jump\t// in\n    tag_94:\n        /* \"#utility.yul\":2608:2737   */\n      swap2\n      swap1\n      pop\n      jump\t// out\n        /* \"#utility.yul\":2743:2818   */\n    tag_93:\n        /* \"#utility.yul\":2776:2782   */\n      0x00\n        /* \"#utility.yul\":2809:2811   */\n      0x40\n        /* \"#utility.yul\":2803:2812   */\n      mload\n        /* \"#utility.yul\":2793:2812   */\n      swap1\n      pop\n        /* \"#utility.yul\":2743:2818   */\n      swap1\n      jump\t// out\n        /* \"#utility.yul\":2824:3132   */\n    tag_49:\n        /* \"#utility.yul\":2886:2890   */\n      0x00\n        /* \"#utility.yul\":2976:2994   */\n      0xffffffffffffffff\n        /* \"#utility.yul\":2968:2974   */\n      dup3\n        /* \"#utility.yul\":2965:2995   */\n      gt\n        /* \"#utility.yul\":2962:3018   */\n      iszero\n      tag_98\n      jumpi\n        /* \"#utility.yul\":2998:3016   */\n      tag_99\n      tag_100\n      jump\t// in\n    tag_99:\n        /* \"#utility.yul\":2962:3018   */\n    tag_98:\n        /* \"#utility.yul\":3036:3065   */\n      tag_101\n        /* \"#utility.yul\":3058:3064   */\n      dup3\n        /* \"#utility.yul\":3036:3065   */\n      tag_88\n      jump\t// in\n    tag_101:\n        /* \"#utility.yul\":3028:3065   */\n      swap1\n      pop\n        /* \"#utility.yul\":3120:3124   */\n      0x20\n        /* \"#utility.yul\":3114:3118   */\n      dup2\n        /* \"#utility.yul\":3110:3125   */\n      add\n        /* \"#utility.yul\":3102:3125   */\n      swap1\n      pop\n        /* \"#utility.yul\":2824:3132   */\n      swap2\n      swap1\n      pop\n      jump\t// out\n        /* \"#utility.yul\":3138:3237   */\n    tag_82:\n        /* \"#utility.yul\":3190:3196   */\n      0x00\n        /* \"#utility.yul\":3224:3229   */\n      dup2\n        /* \"#utility.yul\":3218:3230   */\n      mload\n        /* \"#utility.yul\":3208:3230   */\n      swap1\n      pop\n        /* \"#utility.yul\":3138:3237   */\n      swap2\n      swap1\n      pop\n      jump\t// out\n        /* \"#utility.yul\":3243:3412   */\n    tag_84:\n        /* \"#utility.yul\":3327:3338   */\n      0x00\n        /* \"#utility.yul\":3361:3367   */\n      dup3\n        /* \"#utility.yul\":3356:3359   */\n      dup3\n        /* \"#utility.yul\":3349:3368   */\n      mstore\n        /* \"#utility.yul\":3401:3405   */\n      0x20\n        /* \"#utility.yul\":3396:3399   */\n      dup3\n        /* \"#utility.yul\":3392:3406   */\n      add\n        /* \"#utility.yul\":3377:3406   */\n      swap1\n      pop\n        /* \"#utility.yul\":3243:3412   */\n      swap3\n      swap2\n      pop\n      pop\n      jump\t// out\n        /* \"#utility.yul\":3418:3943   */\n    tag_23:\n        /* \"#utility.yul\":3457:3460   */\n      0x00\n        /* \"#utility.yul\":3476:3495   */\n      tag_105\n        /* \"#utility.yul\":3493:3494   */\n      dup3\n        /* \"#utility.yul\":3476:3495   */\n      tag_106\n      jump\t// in\n    tag_105:\n        /* \"#utility.yul\":3471:3495   */\n      swap2\n      pop\n        /* \"#utility.yul\":3509:3528   */\n      tag_107\n        /* \"#utility.yul\":3526:3527   */\n      dup4\n        /* \"#utility.yul\":3509:3528   */\n      tag_106\n      jump\t// in\n    tag_107:\n        /* \"#utility.yul\":3504:3528   */\n      swap3\n      pop\n        /* \"#utility.yul\":3697:3698   */\n      dup2\n        /* \"#utility.yul\":3629:3695   */\n      0x7fffffffffffffffffffffffffffffffffffffffffffffffffffffffffffffff\n        /* \"#utility.yul\":3625:3699   */\n      sub\n        /* \"#utility.yul\":3622:3623   */\n      dup4\n        /* \"#utility.yul\":3618:3700   */\n      sgt\n        /* \"#utility.yul\":3613:3614   */\n      0x00\n        /* \"#utility.yul\":3610:3611   */\n      dup4\n        /* \"#utility.yul\":3606:3615   */\n      slt\n        /* \"#utility.yul\":3599:3616   */\n      iszero\n        /* \"#utility.yul\":3595:3701   */\n      and\n        /* \"#utility.yul\":3592:3724   */\n      iszero\n      tag_108\n      jumpi\n        /* \"#utility.yul\":3704:3722   */\n      tag_109\n      tag_110\n      jump\t// in\n    tag_109:\n        /* \"#utility.yul\":3592:3724   */\n    tag_108:\n        /* \"#utility.yul\":3884:3885   */\n      dup2\n        /* \"#utility.yul\":3816:3882   */\n      0x8000000000000000000000000000000000000000000000000000000000000000\n        /* \"#utility.yul\":3812:3886   */\n      sub\n        /* \"#utility.yul\":3809:3810   */\n      dup4\n        /* \"#utility.yul\":3805:3887   */\n      slt\n        /* \"#utility.yul\":3801:3802   */\n      0x00\n        /* \"#utility.yul\":3798:3799   */\n      dup4\n        /* \"#utility.yul\":3794:3803   */\n      slt\n        /* \"#utility.yul\":3790:3888   */\n      and\n        /* \"#utility.yul\":3787:3911   */\n      iszero\n      tag_111\n      jumpi\n        /* \"#utility.yul\":3891:3909   */\n      tag_112\n      tag_110\n      jump\t// in\n    tag_112:\n        /* \"#utility.yul\":3787:3911   */\n    tag_111:\n        /* \"#utility.yul\":3935:3936   */\n      dup3\n        /* \"#utility.yul\":3932:3933   */\n      dup3\n        /* \"#utility.yul\":3928:3937   */\n      add\n        /* \"#utility.yul\":3921:3937   */\n      swap1\n      pop\n        /* \"#utility.yul\":3418:3943   */\n      swap3\n      swap2\n      pop\n      pop\n      jump\t// out\n        /* \"#utility.yul\":3949:4940   */\n    tag_27:\n        /* \"#utility.yul\":3988:3995   */\n      0x00\n        /* \"#utility.yul\":4011:4030   */\n      tag_114\n        /* \"#utility.yul\":4028:4029   */\n      dup3\n        /* \"#utility.yul\":4011:4030   */\n      tag_106\n      jump\t// in\n    tag_114:\n        /* \"#utility.yul\":4006:4030   */\n      swap2\n      pop\n        /* \"#utility.yul\":4044:4063   */\n      tag_115\n        /* \"#utility.yul\":4061:4062   */\n      dup4\n        /* \"#utility.yul\":4044:4063   */\n      tag_106\n      jump\t// in\n    tag_115:\n        /* \"#utility.yul\":4039:4063   */\n      swap3\n      pop\n        /* \"#utility.yul\":4245:4246   */\n      dup3\n        /* \"#utility.yul\":4177:4243   */\n      0x7fffffffffffffffffffffffffffffffffffffffffffffffffffffffffffffff\n        /* \"#utility.yul\":4173:4247   */\n      div\n        /* \"#utility.yul\":4170:4171   */\n      dup3\n        /* \"#utility.yul\":4167:4248   */\n      gt\n        /* \"#utility.yul\":4162:4163   */\n      0x00\n        /* \"#utility.yul\":4159:4160   */\n      dup5\n        /* \"#utility.yul\":4155:4164   */\n      sgt\n        /* \"#utility.yul\":4151:4152   */\n      0x00\n        /* \"#utility.yul\":4148:4149   */\n      dup5\n        /* \"#utility.yul\":4144:4153   */\n      sgt\n        /* \"#utility.yul\":4140:4165   */\n      and\n        /* \"#utility.yul\":4136:4249   */\n      and\n        /* \"#utility.yul\":4133:4272   */\n      iszero\n      tag_116\n      jumpi\n        /* \"#utility.yul\":4252:4270   */\n      tag_117\n      tag_110\n      jump\t// in\n    tag_117:\n        /* \"#utility.yul\":4133:4272   */\n    tag_116:\n        /* \"#utility.yul\":4456:4457   */\n      dup2\n        /* \"#utility.yul\":4388:4454   */\n      0x8000000000000000000000000000000000000000000000000000000000000000\n        /* \"#utility.yul\":4383:4458   */\n      sdiv\n        /* \"#utility.yul\":4380:4381   */\n      dup4\n        /* \"#utility.yul\":4376:4459   */\n      slt\n        /* \"#utility.yul\":4371:4372   */\n      0x00\n        /* \"#utility.yul\":4368:4369   */\n      dup5\n        /* \"#utility.yul\":4364:4373   */\n      slt\n        /* \"#utility.yul\":4360:4361   */\n      0x00\n        /* \"#utility.yul\":4357:4358   */\n      dup5\n        /* \"#utility.yul\":4353:4362   */\n      sgt\n        /* \"#utility.yul\":4349:4374   */\n      and\n        /* \"#utility.yul\":4345:4460   */\n      and\n        /* \"#utility.yul\":4342:4483   */\n      iszero\n      tag_118\n      jumpi\n        /* \"#utility.yul\":4463:4481   */\n      tag_119\n      tag_110\n      jump\t// in\n    tag_119:\n        /* \"#utility.yul\":4342:4483   */\n    tag_118:\n        /* \"#utility.yul\":4667:4668   */\n      dup3\n        /* \"#utility.yul\":4599:4665   */\n      0x8000000000000000000000000000000000000000000000000000000000000000\n        /* \"#utility.yul\":4594:4669   */\n      sdiv\n        /* \"#utility.yul\":4591:4592   */\n      dup3\n        /* \"#utility.yul\":4587:4670   */\n      slt\n        /* \"#utility.yul\":4582:4583   */\n      0x00\n        /* \"#utility.yul\":4579:4580   */\n      dup5\n        /* \"#utility.yul\":4575:4584   */\n      sgt\n        /* \"#utility.yul\":4571:4572   */\n      0x00\n        /* \"#utility.yul\":4568:4569   */\n      dup5\n        /* \"#utility.yul\":4564:4573   */\n      slt\n        /* \"#utility.yul\":4560:4585   */\n      and\n        /* \"#utility.yul\":4556:4671   */\n      and\n        /* \"#utility.yul\":4553:4694   */\n      iszero\n      tag_120\n      jumpi\n        /* \"#utility.yul\":4674:4692   */\n      tag_121\n      tag_110\n      jump\t// in\n    tag_121:\n        /* \"#utility.yul\":4553:4694   */\n    tag_120:\n        /* \"#utility.yul\":4877:4878   */\n      dup3\n        /* \"#utility.yul\":4809:4875   */\n      0x7fffffffffffffffffffffffffffffffffffffffffffffffffffffffffffffff\n        /* \"#utility.yul\":4804:4879   */\n      sdiv\n        /* \"#utility.yul\":4801:4802   */\n      dup3\n        /* \"#utility.yul\":4797:4880   */\n      slt\n        /* \"#utility.yul\":4792:4793   */\n      0x00\n        /* \"#utility.yul\":4789:4790   */\n      dup5\n        /* \"#utility.yul\":4785:4794   */\n      slt\n        /* \"#utility.yul\":4781:4782   */\n      0x00\n        /* \"#utility.yul\":4778:4779   */\n      dup5\n        /* \"#utility.yul\":4774:4783   */\n      slt\n        /* \"#utility.yul\":4770:4795   */\n      and\n        /* \"#utility.yul\":4766:4881   */\n      and\n        /* \"#utility.yul\":4763:4904   */\n      iszero\n      tag_122\n      jumpi\n        /* \"#utility.yul\":4884:4902   */\n      tag_123\n      tag_110\n      jump\t// in\n    tag_123:\n        /* \"#utility.yul\":4763:4904   */\n    tag_122:\n        /* \"#utility.yul\":4932:4933   */\n      dup3\n        /* \"#utility.yul\":4929:4930   */\n      dup3\n        /* \"#utility.yul\":4925:4934   */\n      mul\n        /* \"#utility.yul\":4914:4934   */\n      swap1\n      pop\n        /* \"#utility.yul\":3949:4940   */\n      swap3\n      swap2\n      pop\n      pop\n      jump\t// out\n        /* \"#utility.yul\":4946:5473   */\n    tag_25:\n        /* \"#utility.yul\":4985:4989   */\n      0x00\n        /* \"#utility.yul\":5005:5024   */\n      tag_125\n        /* \"#utility.yul\":5022:5023   */\n      dup3\n        /* \"#utility.yul\":5005:5024   */\n      tag_106\n      jump\t// in\n    tag_125:\n        /* \"#utility.yul\":5000:5024   */\n      swap2\n      pop\n        /* \"#utility.yul\":5038:5057   */\n      tag_126\n        /* \"#utility.yul\":5055:5056   */\n      dup4\n        /* \"#utility.yul\":5038:5057   */\n      tag_106\n      jump\t// in\n    tag_126:\n        /* \"#utility.yul\":5033:5057   */\n      swap3\n      pop\n        /* \"#utility.yul\":5227:5228   */\n      dup3\n        /* \"#utility.yul\":5159:5225   */\n      0x8000000000000000000000000000000000000000000000000000000000000000\n        /* \"#utility.yul\":5155:5229   */\n      add\n        /* \"#utility.yul\":5152:5153   */\n      dup3\n        /* \"#utility.yul\":5148:5230   */\n      slt\n        /* \"#utility.yul\":5143:5144   */\n      0x00\n        /* \"#utility.yul\":5140:5141   */\n      dup5\n        /* \"#utility.yul\":5136:5145   */\n      slt\n        /* \"#utility.yul\":5129:5146   */\n      iszero\n        /* \"#utility.yul\":5125:5231   */\n      and\n        /* \"#utility.yul\":5122:5254   */\n      iszero\n      tag_127\n      jumpi\n        /* \"#utility.yul\":5234:5252   */\n      tag_128\n      tag_110\n      jump\t// in\n    tag_128:\n        /* \"#utility.yul\":5122:5254   */\n    tag_127:\n        /* \"#utility.yul\":5413:5414   */\n      dup3\n        /* \"#utility.yul\":5345:5411   */\n      0x7fffffffffffffffffffffffffffffffffffffffffffffffffffffffffffffff\n        /* \"#utility.yul\":5341:5415   */\n      add\n        /* \"#utility.yul\":5338:5339   */\n      dup3\n        /* \"#utility.yul\":5334:5416   */\n      sgt\n        /* \"#utility.yul\":5330:5331   */\n      0x00\n        /* \"#utility.yul\":5327:5328   */\n      dup5\n        /* \"#utility.yul\":5323:5332   */\n      slt\n        /* \"#utility.yul\":5319:5417   */\n      and\n        /* \"#utility.yul\":5316:5440   */\n      iszero\n      tag_129\n      jumpi\n        /* \"#utility.yul\":5420:5438   */\n      tag_130\n      tag_110\n      jump\t// in\n    tag_130:\n        /* \"#utility.yul\":5316:5440   */\n    tag_129:\n        /* \"#utility.yul\":5465:5466   */\n      dup3\n        /* \"#utility.yul\":5462:5463   */\n      dup3\n        /* \"#utility.yul\":5458:5467   */\n      sub\n        /* \"#utility.yul\":5450:5467   */\n      swap1\n      pop\n        /* \"#utility.yul\":4946:5473   */\n      swap3\n      swap2\n      pop\n      pop\n      jump\t// out\n        /* \"#utility.yul\":5479:5555   */\n    tag_106:\n        /* \"#utility.yul\":5515:5522   */\n      0x00\n        /* \"#utility.yul\":5544:5549   */\n      dup2\n        /* \"#utility.yul\":5533:5549   */\n      swap1\n      pop\n        /* \"#utility.yul\":5479:5555   */\n      swap2\n      swap1\n      pop\n      jump\t// out\n        /* \"#utility.yul\":5561:5715   */\n    tag_55:\n        /* \"#utility.yul\":5645:5651   */\n      dup3\n        /* \"#utility.yul\":5640:5643   */\n      dup2\n        /* \"#utility.yul\":5635:5638   */\n      dup4\n        /* \"#utility.yul\":5622:5652   */\n      calldatacopy\n        /* \"#utility.yul\":5707:5708   */\n      0x00\n        /* \"#utility.yul\":5698:5704   */\n      dup4\n        /* \"#utility.yul\":5693:5696   */\n      dup4\n        /* \"#utility.yul\":5689:5705   */\n      add\n        /* \"#utility.yul\":5682:5709   */\n      mstore\n        /* \"#utility.yul\":5561:5715   */\n      pop\n      pop\n      pop\n      jump\t// out\n        /* \"#utility.yul\":5721:6028   */\n    tag_86:\n        /* \"#utility.yul\":5789:5790   */\n      0x00\n        /* \"#utility.yul\":5799:5912   */\n    tag_134:\n        /* \"#utility.yul\":5813:5819   */\n      dup4\n        /* \"#utility.yul\":5810:5811   */\n      dup2\n        /* \"#utility.yul\":5807:5820   */\n      lt\n        /* \"#utility.yul\":5799:5912   */\n      iszero\n      tag_136\n      jumpi\n        /* \"#utility.yul\":5898:5899   */\n      dup1\n        /* \"#utility.yul\":5893:5896   */\n      dup3\n        /* \"#utility.yul\":5889:5900   */\n      add\n        /* \"#utility.yul\":5883:5901   */\n      mload\n        /* \"#utility.yul\":5879:5880   */\n      dup2\n        /* \"#utility.yul\":5874:5877   */\n      dup5\n        /* \"#utility.yul\":5870:5881   */\n      add\n        /* \"#utility.yul\":5863:5902   */\n      mstore\n        /* \"#utility.yul\":5835:5837   */\n      0x20\n        /* \"#utility.yul\":5832:5833   */\n      dup2\n        /* \"#utility.yul\":5828:5838   */\n      add\n        /* \"#utility.yul\":5823:5838   */\n      swap1\n      pop\n        /* \"#utility.yul\":5799:5912   */\n      jump(tag_134)\n    tag_136:\n        /* \"#utility.yul\":5930:5936   */\n      dup4\n        /* \"#utility.yul\":5927:5928   */\n      dup2\n        /* \"#utility.yul\":5924:5937   */\n      gt\n        /* \"#utility.yul\":5921:6022   */\n      iszero\n      tag_137\n      jumpi\n        /* \"#utility.yul\":6010:6011   */\n      0x00\n        /* \"#utility.yul\":6001:6007   */\n      dup5\n        /* \"#utility.yul\":5996:5999   */\n      dup5\n        /* \"#utility.yul\":5992:6008   */\n      add\n        /* \"#utility.yul\":5985:6012   */\n      mstore\n        /* \"#utility.yul\":5921:6022   */\n    tag_137:\n        /* \"#utility.yul\":5770:6028   */\n      pop\n        /* \"#utility.yul\":5721:6028   */\n      pop\n      pop\n      pop\n      jump\t// out\n        /* \"#utility.yul\":6034:6354   */\n    tag_29:\n        /* \"#utility.yul\":6078:6084   */\n      0x00\n        /* \"#utility.yul\":6115:6116   */\n      0x02\n        /* \"#utility.yul\":6109:6113   */\n      dup3\n        /* \"#utility.yul\":6105:6117   */\n      div\n        /* \"#utility.yul\":6095:6117   */\n      swap1\n      pop\n        /* \"#utility.yul\":6162:6163   */\n      0x01\n        /* \"#utility.yul\":6156:6160   */\n      dup3\n        /* \"#utility.yul\":6152:6164   */\n      and\n        /* \"#utility.yul\":6183:6201   */\n      dup1\n        /* \"#utility.yul\":6173:6254   */\n      tag_139\n      jumpi\n        /* \"#utility.yul\":6239:6243   */\n      0x7f\n        /* \"#utility.yul\":6231:6237   */\n      dup3\n        /* \"#utility.yul\":6227:6244   */\n      and\n        /* \"#utility.yul\":6217:6244   */\n      swap2\n      pop\n        /* \"#utility.yul\":6173:6254   */\n    tag_139:\n        /* \"#utility.yul\":6301:6303   */\n      0x20\n        /* \"#utility.yul\":6293:6299   */\n      dup3\n        /* \"#utility.yul\":6290:6304   */\n      lt\n        /* \"#utility.yul\":6270:6288   */\n      dup2\n        /* \"#utility.yul\":6267:6305   */\n      eq\n        /* \"#utility.yul\":6264:6348   */\n      iszero\n      tag_140\n      jumpi\n        /* \"#utility.yul\":6320:6338   */\n      tag_141\n      tag_142\n      jump\t// in\n    tag_141:\n        /* \"#utility.yul\":6264:6348   */\n    tag_140:\n        /* \"#utility.yul\":6085:6354   */\n      pop\n        /* \"#utility.yul\":6034:6354   */\n      swap2\n      swap1\n      pop\n      jump\t// out\n        /* \"#utility.yul\":6360:6641   */\n    tag_95:\n        /* \"#utility.yul\":6443:6470   */\n      tag_144\n        /* \"#utility.yul\":6465:6469   */\n      dup3\n        /* \"#utility.yul\":6443:6470   */\n      tag_88\n      jump\t// in\n    tag_144:\n        /* \"#utility.yul\":6435:6441   */\n      dup2\n        /* \"#utility.yul\":6431:6471   */\n      add\n        /* \"#utility.yul\":6573:6579   */\n      dup2\n        /* \"#utility.yul\":6561:6571   */\n      dup2\n        /* \"#utility.yul\":6558:6580   */\n      lt\n        /* \"#utility.yul\":6537:6555   */\n      0xffffffffffffffff\n        /* \"#utility.yul\":6525:6535   */\n      dup3\n        /* \"#utility.yul\":6522:6556   */\n      gt\n        /* \"#utility.yul\":6519:6581   */\n      or\n        /* \"#utility.yul\":6516:6604   */\n      iszero\n      tag_145\n      jumpi\n        /* \"#utility.yul\":6584:6602   */\n      tag_146\n      tag_100\n      jump\t// in\n    tag_146:\n        /* \"#utility.yul\":6516:6604   */\n    tag_145:\n        /* \"#utility.yul\":6624:6634   */\n      dup1\n        /* \"#utility.yul\":6620:6622   */\n      0x40\n        /* \"#utility.yul\":6613:6635   */\n      mstore\n        /* \"#utility.yul\":6403:6641   */\n      pop\n        /* \"#utility.yul\":6360:6641   */\n      pop\n      pop\n      jump\t// out\n        /* \"#utility.yul\":6647:6827   */\n    tag_110:\n        /* \"#utility.yul\":6695:6772   */\n      0x4e487b7100000000000000000000000000000000000000000000000000000000\n        /* \"#utility.yul\":6692:6693   */\n      0x00\n        /* \"#utility.yul\":6685:6773   */\n      mstore\n        /* \"#utility.yul\":6792:6796   */\n      0x11\n        /* \"#utility.yul\":6789:6790   */\n      0x04\n        /* \"#utility.yul\":6782:6797   */\n      mstore\n        /* \"#utility.yul\":6816:6820   */\n      0x24\n        /* \"#utility.yul\":6813:6814   */\n      0x00\n        /* \"#utility.yul\":6806:6821   */\n      revert\n        /* \"#utility.yul\":6833:7013   */\n    tag_142:\n        /* \"#utility.yul\":6881:6958   */\n      0x4e487b7100000000000000000000000000000000000000000000000000000000\n        /* \"#utility.yul\":6878:6879   */\n      0x00\n        /* \"#utility.yul\":6871:6959   */\n      mstore\n        /* \"#utility.yul\":6978:6982   */\n      0x22\n        /* \"#utility.yul\":6975:6976   */\n      0x04\n        /* \"#utility.yul\":6968:6983   */\n      mstore\n        /* \"#utility.yul\":7002:7006   */\n      0x24\n        /* \"#utility.yul\":6999:7000   */\n      0x00\n        /* \"#utility.yul\":6992:7007   */\n      revert\n        /* \"#utility.yul\":7019:7199   */\n    tag_100:\n        /* \"#utility.yul\":7067:7144   */\n      0x4e487b7100000000000000000000000000000000000000000000000000000000\n        /* \"#utility.yul\":7064:7065   */\n      0x00\n        /* \"#utility.yul\":7057:7145   */\n      mstore\n        /* \"#utility.yul\":7164:7168   */\n      0x41\n        /* \"#utility.yul\":7161:7162   */\n      0x04\n        /* \"#utility.yul\":7154:7169   */\n      mstore\n        /* \"#utility.yul\":7188:7192   */\n      0x24\n        /* \"#utility.yul\":7185:7186   */\n      0x00\n        /* \"#utility.yul\":7178:7193   */\n      revert\n        /* \"#utility.yul\":7205:7322   */\n    tag_64:\n        /* \"#utility.yul\":7314:7315   */\n      0x00\n        /* \"#utility.yul\":7311:7312   */\n      dup1\n        /* \"#utility.yul\":7304:7316   */\n      revert\n        /* \"#utility.yul\":7328:7445   */\n    tag_53:\n        /* \"#utility.yul\":7437:7438   */\n      0x00\n        /* \"#utility.yul\":7434:7435   */\n      dup1\n        /* \"#utility.yul\":7427:7439   */\n      revert\n        /* \"#utility.yul\":7451:7568   */\n    tag_77:\n        /* \"#utility.yul\":7560:7561   */\n      0x00\n        /* \"#utility.yul\":7557:7558   */\n      dup1\n        /* \"#utility.yul\":7550:7562   */\n      revert\n        /* \"#utility.yul\":7574:7691   */\n    tag_69:\n        /* \"#utility.yul\":7683:7684   */\n      0x00\n        /* \"#utility.yul\":7680:7681   */\n      dup1\n        /* \"#utility.yul\":7673:7685   */\n      revert\n        /* \"#utility.yul\":7697:7799   */\n    tag_88:\n        /* \"#utility.yul\":7738:7744   */\n      0x00\n        /* \"#utility.yul\":7789:7791   */\n      0x1f\n        /* \"#utility.yul\":7785:7792   */\n      not\n        /* \"#utility.yul\":7780:7782   */\n      0x1f\n        /* \"#utility.yul\":7773:7778   */\n      dup4\n        /* \"#utility.yul\":7769:7783   */\n      add\n        /* \"#utility.yul\":7765:7793   */\n      and\n        /* \"#utility.yul\":7755:7793   */\n      swap1\n      pop\n        /* \"#utility.yul\":7697:7799   */\n      swap2\n      swap1\n      pop\n      jump\t// out\n        /* \"#utility.yul\":7805:7925   */\n    tag_59:\n        /* \"#utility.yul\":7877:7900   */\n      tag_156\n        /* \"#utility.yul\":7894:7899   */\n      dup2\n        /* \"#utility.yul\":7877:7900   */\n      tag_106\n      jump\t// in\n    tag_156:\n        /* \"#utility.yul\":7870:7875   */\n      dup2\n        /* \"#utility.yul\":7867:7901   */\n      eq\n        /* \"#utility.yul\":7857:7919   */\n      tag_157\n      jumpi\n        /* \"#utility.yul\":7915:7916   */\n      0x00\n        /* \"#utility.yul\":7912:7913   */\n      dup1\n        /* \"#utility.yul\":7905:7917   */\n      revert\n        /* \"#utility.yul\":7857:7919   */\n    tag_157:\n        /* \"#utility.yul\":7805:7925   */\n      pop\n      jump\t// out\n\n    auxdata: 0xa2646970667358221220d51065de22db1f7593367d37cbb16bfb997c62a1499e72bb54bf65873735f3e364736f6c63430008070033\n}\n",
				"bytecode": {
					"linkReferences": {},
					"object": "60806040523480156200001157600080fd5b5060405162000b4438038062000b44833981810160405281019062000037919062000185565b80600090805190602001906200004f92919062000057565b50506200035a565b82805462000065906200026b565b90600052602060002090601f016020900481019282620000895760008555620000d5565b82601f10620000a457805160ff1916838001178555620000d5565b82800160010185558215620000d5579182015b82811115620000d4578251825591602001919060010190620000b7565b5b509050620000e49190620000e8565b5090565b5b8082111562000103576000816000905550600101620000e9565b5090565b60006200011e6200011884620001ff565b620001d6565b9050828152602081018484840111156200013d576200013c6200033a565b5b6200014a84828562000235565b509392505050565b600082601f8301126200016a576200016962000335565b5b81516200017c84826020860162000107565b91505092915050565b6000602082840312156200019e576200019d62000344565b5b600082015167ffffffffffffffff811115620001bf57620001be6200033f565b5b620001cd8482850162000152565b91505092915050565b6000620001e2620001f5565b9050620001f08282620002a1565b919050565b6000604051905090565b600067ffffffffffffffff8211156200021d576200021c62000306565b5b620002288262000349565b9050602081019050919050565b60005b838110156200025557808201518184015260208101905062000238565b8381111562000265576000848401525b50505050565b600060028204905060018216806200028457607f821691505b602082108114156200029b576200029a620002d7565b5b50919050565b620002ac8262000349565b810181811067ffffffffffffffff82111715620002ce57620002cd62000306565b5b80604052505050565b7f4e487b7100000000000000000000000000000000000000000000000000000000600052602260045260246000fd5b7f4e487b7100000000000000000000000000000000000000000000000000000000600052604160045260246000fd5b600080fd5b600080fd5b600080fd5b600080fd5b6000601f19601f8301169050919050565b6107da806200036a6000396000f3fe608060405234801561001057600080fd5b50600436106100415760003560e01c8063368b877214610046578063d545dd8c14610062578063e21f37ce1461007e575b600080fd5b610060600480360381019061005b91906102d7565b61009c565b005b61007c60048036038101906100779190610297565b6100b6565b005b6100866100e1565b6040516100939190610359565b60405180910390f35b80600090805190602001906100b292919061016f565b5050565b80826100c291906103ed565b5081816100cf9190610598565b5080826100dc9190610481565b505050565b600080546100ee90610678565b80601f016020809104026020016040519081016040528092919081815260200182805461011a90610678565b80156101675780601f1061013c57610100808354040283529160200191610167565b820191906000526020600020905b81548152906001019060200180831161014a57829003601f168201915b505050505081565b82805461017b90610678565b90600052602060002090601f01602090048101928261019d57600085556101e4565b82601f106101b657805160ff19168380011785556101e4565b828001600101855582156101e4579182015b828111156101e35782518255916020019190600101906101c8565b5b5090506101f191906101f5565b5090565b5b8082111561020e5760008160009055506001016101f6565b5090565b6000610225610220846103a0565b61037b565b9050828152602081018484840111156102415761024061076d565b5b61024c848285610636565b509392505050565b6000813590506102638161078d565b92915050565b600082601f83011261027e5761027d610768565b5b813561028e848260208601610212565b91505092915050565b600080604083850312156102ae576102ad610777565b5b60006102bc85828601610254565b92505060206102cd85828601610254565b9150509250929050565b6000602082840312156102ed576102ec610777565b5b600082013567ffffffffffffffff81111561030b5761030a610772565b5b61031784828501610269565b91505092915050565b600061032b826103d1565b61033581856103dc565b9350610345818560208601610645565b61034e8161077c565b840191505092915050565b600060208201905081810360008301526103738184610320565b905092915050565b6000610385610396565b905061039182826106aa565b919050565b6000604051905090565b600067ffffffffffffffff8211156103bb576103ba610739565b5b6103c48261077c565b9050602081019050919050565b600081519050919050565b600082825260208201905092915050565b60006103f88261062c565b91506104038361062c565b9250817f7fffffffffffffffffffffffffffffffffffffffffffffffffffffffffffffff0383136000831215161561043e5761043d6106db565b5b817f8000000000000000000000000000000000000000000000000000000000000000038312600083121615610476576104756106db565b5b828201905092915050565b600061048c8261062c565b91506104978361062c565b9250827f7fffffffffffffffffffffffffffffffffffffffffffffffffffffffffffffff04821160008413600084131616156104d6576104d56106db565b5b817f80000000000000000000000000000000000000000000000000000000000000000583126000841260008413161615610513576105126106db565b5b827f800000000000000000000000000000000000000000000000000000000000000005821260008413600084121616156105505761054f6106db565b5b827f7fffffffffffffffffffffffffffffffffffffffffffffffffffffffffffffff058212600084126000841216161561058d5761058c6106db565b5b828202905092915050565b60006105a38261062c565b91506105ae8361062c565b9250827f8000000000000000000000000000000000000000000000000000000000000000018212600084121516156105e9576105e86106db565b5b827f7fffffffffffffffffffffffffffffffffffffffffffffffffffffffffffffff018213600084121615610621576106206106db565b5b828203905092915050565b6000819050919050565b82818337600083830152505050565b60005b83811015610663578082015181840152602081019050610648565b83811115610672576000848401525b50505050565b6000600282049050600182168061069057607f821691505b602082108114156106a4576106a361070a565b5b50919050565b6106b38261077c565b810181811067ffffffffffffffff821117156106d2576106d1610739565b5b80604052505050565b7f4e487b7100000000000000000000000000000000000000000000000000000000600052601160045260246000fd5b7f4e487b7100000000000000000000000000000000000000000000000000000000600052602260045260246000fd5b7f4e487b7100000000000000000000000000000000000000000000000000000000600052604160045260246000fd5b600080fd5b600080fd5b600080fd5b600080fd5b6000601f19601f8301169050919050565b6107968161062c565b81146107a157600080fd5b5056fea2646970667358221220d51065de22db1f7593367d37cbb16bfb997c62a1499e72bb54bf65873735f3e364736f6c63430008070033",
					"opcodes": "PUSH1 0x80 PUSH1 0x40 MSTORE CALLVALUE DUP1 ISZERO PUSH3 0x11 JUMPI PUSH1 0x0 DUP1 REVERT JUMPDEST POP PUSH1 0x40 MLOAD PUSH3 0xB44 CODESIZE SUB DUP1 PUSH3 0xB44 DUP4 CODECOPY DUP2 DUP2 ADD PUSH1 0x40 MSTORE DUP2 ADD SWAP1 PUSH3 0x37 SWAP2 SWAP1 PUSH3 0x185 JUMP JUMPDEST DUP1 PUSH1 0x0 SWAP1 DUP1 MLOAD SWAP1 PUSH1 0x20 ADD SWAP1 PUSH3 0x4F SWAP3 SWAP2 SWAP1 PUSH3 0x57 JUMP JUMPDEST POP POP PUSH3 0x35A JUMP JUMPDEST DUP3 DUP1 SLOAD PUSH3 0x65 SWAP1 PUSH3 0x26B JUMP JUMPDEST SWAP1 PUSH1 0x0 MSTORE PUSH1 0x20 PUSH1 0x0 KECCAK256 SWAP1 PUSH1 0x1F ADD PUSH1 0x20 SWAP1 DIV DUP2 ADD SWAP3 DUP3 PUSH3 0x89 JUMPI PUSH1 0x0 DUP6 SSTORE PUSH3 0xD5 JUMP JUMPDEST DUP3 PUSH1 0x1F LT PUSH3 0xA4 JUMPI DUP1 MLOAD PUSH1 0xFF NOT AND DUP4 DUP1 ADD OR DUP6 SSTORE PUSH3 0xD5 JUMP JUMPDEST DUP3 DUP1 ADD PUSH1 0x1 ADD DUP6 SSTORE DUP3 ISZERO PUSH3 0xD5 JUMPI SWAP2 DUP3 ADD JUMPDEST DUP3 DUP2 GT ISZERO PUSH3 0xD4 JUMPI DUP3 MLOAD DUP3 SSTORE SWAP2 PUSH1 0x20 ADD SWAP2 SWAP1 PUSH1 0x1 ADD SWAP1 PUSH3 0xB7 JUMP JUMPDEST JUMPDEST POP SWAP1 POP PUSH3 0xE4 SWAP2 SWAP1 PUSH3 0xE8 JUMP JUMPDEST POP SWAP1 JUMP JUMPDEST JUMPDEST DUP1 DUP3 GT ISZERO PUSH3 0x103 JUMPI PUSH1 0x0 DUP2 PUSH1 0x0 SWAP1 SSTORE POP PUSH1 0x1 ADD PUSH3 0xE9 JUMP JUMPDEST POP SWAP1 JUMP JUMPDEST PUSH1 0x0 PUSH3 0x11E PUSH3 0x118 DUP5 PUSH3 0x1FF JUMP JUMPDEST PUSH3 0x1D6 JUMP JUMPDEST SWAP1 POP DUP3 DUP2 MSTORE PUSH1 0x20 DUP2 ADD DUP5 DUP5 DUP5 ADD GT ISZERO PUSH3 0x13D JUMPI PUSH3 0x13C PUSH3 0x33A JUMP JUMPDEST JUMPDEST PUSH3 0x14A DUP5 DUP3 DUP6 PUSH3 0x235 JUMP JUMPDEST POP SWAP4 SWAP3 POP POP POP JUMP JUMPDEST PUSH1 0x0 DUP3 PUSH1 0x1F DUP4 ADD SLT PUSH3 0x16A JUMPI PUSH3 0x169 PUSH3 0x335 JUMP JUMPDEST JUMPDEST DUP2 MLOAD PUSH3 0x17C DUP5 DUP3 PUSH1 0x20 DUP7 ADD PUSH3 0x107 JUMP JUMPDEST SWAP2 POP POP SWAP3 SWAP2 POP POP JUMP JUMPDEST PUSH1 0x0 PUSH1 0x20 DUP3 DUP5 SUB SLT ISZERO PUSH3 0x19E JUMPI PUSH3 0x19D PUSH3 0x344 JUMP JUMPDEST JUMPDEST PUSH1 0x0 DUP3 ADD MLOAD PUSH8 0xFFFFFFFFFFFFFFFF DUP2 GT ISZERO PUSH3 0x1BF JUMPI PUSH3 0x1BE PUSH3 0x33F JUMP JUMPDEST JUMPDEST PUSH3 0x1CD DUP5 DUP3 DUP6 ADD PUSH3 0x152 JUMP JUMPDEST SWAP2 POP POP SWAP3 SWAP2 POP POP JUMP JUMPDEST PUSH1 0x0 PUSH3 0x1E2 PUSH3 0x1F5 JUMP JUMPDEST SWAP1 POP PUSH3 0x1F0 DUP3 DUP3 PUSH3 0x2A1 JUMP JUMPDEST SWAP2 SWAP1 POP JUMP JUMPDEST PUSH1 0x0 PUSH1 0x40 MLOAD SWAP1 POP SWAP1 JUMP JUMPDEST PUSH1 0x0 PUSH8 0xFFFFFFFFFFFFFFFF DUP3 GT ISZERO PUSH3 0x21D JUMPI PUSH3 0x21C PUSH3 0x306 JUMP JUMPDEST JUMPDEST PUSH3 0x228 DUP3 PUSH3 0x349 JUMP JUMPDEST SWAP1 POP PUSH1 0x20 DUP2 ADD SWAP1 POP SWAP2 SWAP1 POP JUMP JUMPDEST PUSH1 0x0 JUMPDEST DUP4 DUP2 LT ISZERO PUSH3 0x255 JUMPI DUP1 DUP3 ADD MLOAD DUP2 DUP5 ADD MSTORE PUSH1 0x20 DUP2 ADD SWAP1 POP PUSH3 0x238 JUMP JUMPDEST DUP4 DUP2 GT ISZERO PUSH3 0x265 JUMPI PUSH1 0x0 DUP5 DUP5 ADD MSTORE JUMPDEST POP POP POP POP JUMP JUMPDEST PUSH1 0x0 PUSH1 0x2 DUP3 DIV SWAP1 POP PUSH1 0x1 DUP3 AND DUP1 PUSH3 0x284 JUMPI PUSH1 0x7F DUP3 AND SWAP2 POP JUMPDEST PUSH1 0x20 DUP3 LT DUP2 EQ ISZERO PUSH3 0x29B JUMPI PUSH3 0x29A PUSH3 0x2D7 JUMP JUMPDEST JUMPDEST POP SWAP2 SWAP1 POP JUMP JUMPDEST PUSH3 0x2AC DUP3 PUSH3 0x349 JUMP JUMPDEST DUP2 ADD DUP2 DUP2 LT PUSH8 0xFFFFFFFFFFFFFFFF DUP3 GT OR ISZERO PUSH3 0x2CE JUMPI PUSH3 0x2CD PUSH3 0x306 JUMP JUMPDEST JUMPDEST DUP1 PUSH1 0x40 MSTORE POP POP POP JUMP JUMPDEST PUSH32 0x4E487B7100000000000000000000000000000000000000000000000000000000 PUSH1 0x0 MSTORE PUSH1 0x22 PUSH1 0x4 MSTORE PUSH1 0x24 PUSH1 0x0 REVERT JUMPDEST PUSH32 0x4E487B7100000000000000000000000000000000000000000000000000000000 PUSH1 0x0 MSTORE PUSH1 0x41 PUSH1 0x4 MSTORE PUSH1 0x24 PUSH1 0x0 REVERT JUMPDEST PUSH1 0x0 DUP1 REVERT JUMPDEST PUSH1 0x0 DUP1 REVERT JUMPDEST PUSH1 0x0 DUP1 REVERT JUMPDEST PUSH1 0x0 DUP1 REVERT JUMPDEST PUSH1 0x0 PUSH1 0x1F NOT PUSH1 0x1F DUP4 ADD AND SWAP1 POP SWAP2 SWAP1 POP JUMP JUMPDEST PUSH2 0x7DA DUP1 PUSH3 0x36A PUSH1 0x0 CODECOPY PUSH1 0x0 RETURN INVALID PUSH1 0x80 PUSH1 0x40 MSTORE CALLVALUE DUP1 ISZERO PUSH2 0x10 JUMPI PUSH1 0x0 DUP1 REVERT JUMPDEST POP PUSH1 0x4 CALLDATASIZE LT PUSH2 0x41 JUMPI PUSH1 0x0 CALLDATALOAD PUSH1 0xE0 SHR DUP1 PUSH4 0x368B8772 EQ PUSH2 0x46 JUMPI DUP1 PUSH4 0xD545DD8C EQ PUSH2 0x62 JUMPI DUP1 PUSH4 0xE21F37CE EQ PUSH2 0x7E JUMPI JUMPDEST PUSH1 0x0 DUP1 REVERT JUMPDEST PUSH2 0x60 PUSH1 0x4 DUP1 CALLDATASIZE SUB DUP2 ADD SWAP1 PUSH2 0x5B SWAP2 SWAP1 PUSH2 0x2D7 JUMP JUMPDEST PUSH2 0x9C JUMP JUMPDEST STOP JUMPDEST PUSH2 0x7C PUSH1 0x4 DUP1 CALLDATASIZE SUB DUP2 ADD SWAP1 PUSH2 0x77 SWAP2 SWAP1 PUSH2 0x297 JUMP JUMPDEST PUSH2 0xB6 JUMP JUMPDEST STOP JUMPDEST PUSH2 0x86 PUSH2 0xE1 JUMP JUMPDEST PUSH1 0x40 MLOAD PUSH2 0x93 SWAP2 SWAP1 PUSH2 0x359 JUMP JUMPDEST PUSH1 0x40 MLOAD DUP1 SWAP2 SUB SWAP1 RETURN JUMPDEST DUP1 PUSH1 0x0 SWAP1 DUP1 MLOAD SWAP1 PUSH1 0x20 ADD SWAP1 PUSH2 0xB2 SWAP3 SWAP2 SWAP1 PUSH2 0x16F JUMP JUMPDEST POP POP JUMP JUMPDEST DUP1 DUP3 PUSH2 0xC2 SWAP2 SWAP1 PUSH2 0x3ED JUMP JUMPDEST POP DUP2 DUP2 PUSH2 0xCF SWAP2 SWAP1 PUSH2 0x598 JUMP JUMPDEST POP DUP1 DUP3 PUSH2 0xDC SWAP2 SWAP1 PUSH2 0x481 JUMP JUMPDEST POP POP POP JUMP JUMPDEST PUSH1 0x0 DUP1 SLOAD PUSH2 0xEE SWAP1 PUSH2 0x678 JUMP JUMPDEST DUP1 PUSH1 0x1F ADD PUSH1 0x20 DUP1 SWAP2 DIV MUL PUSH1 0x20 ADD PUSH1 0x40 MLOAD SWAP1 DUP2 ADD PUSH1 0x40 MSTORE DUP1 SWAP3 SWAP2 SWAP1 DUP2 DUP2 MSTORE PUSH1 0x20 ADD DUP3 DUP1 SLOAD PUSH2 0x11A SWAP1 PUSH2 0x678 JUMP JUMPDEST DUP1 ISZERO PUSH2 0x167 JUMPI DUP1 PUSH1 0x1F LT PUSH2 0x13C JUMPI PUSH2 0x100 DUP1 DUP4 SLOAD DIV MUL DUP4 MSTORE SWAP2 PUSH1 0x20 ADD SWAP2 PUSH2 0x167 JUMP JUMPDEST DUP3 ADD SWAP2 SWAP1 PUSH1 0x0 MSTORE PUSH1 0x20 PUSH1 0x0 KECCAK256 SWAP1 JUMPDEST DUP2 SLOAD DUP2 MSTORE SWAP1 PUSH1 0x1 ADD SWAP1 PUSH1 0x20 ADD DUP1 DUP4 GT PUSH2 0x14A JUMPI DUP3 SWAP1 SUB PUSH1 0x1F AND DUP3 ADD SWAP2 JUMPDEST POP POP POP POP POP DUP2 JUMP JUMPDEST DUP3 DUP1 SLOAD PUSH2 0x17B SWAP1 PUSH2 0x678 JUMP JUMPDEST SWAP1 PUSH1 0x0 MSTORE PUSH1 0x20 PUSH1 0x0 KECCAK256 SWAP1 PUSH1 0x1F ADD PUSH1 0x20 SWAP1 DIV DUP2 ADD SWAP3 DUP3 PUSH2 0x19D JUMPI PUSH1 0x0 DUP6 SSTORE PUSH2 0x1E4 JUMP JUMPDEST DUP3 PUSH1 0x1F LT PUSH2 0x1B6 JUMPI DUP1 MLOAD PUSH1 0xFF NOT AND DUP4 DUP1 ADD OR DUP6 SSTORE PUSH2 0x1E4 JUMP JUMPDEST DUP3 DUP1 ADD PUSH1 0x1 ADD DUP6 SSTORE DUP3 ISZERO PUSH2 0x1E4 JUMPI SWAP2 DUP3 ADD JUMPDEST DUP3 DUP2 GT ISZERO PUSH2 0x1E3 JUMPI DUP3 MLOAD DUP3 SSTORE SWAP2 PUSH1 0x20 ADD SWAP2 SWAP1 PUSH1 0x1 ADD SWAP1 PUSH2 0x1C8 JUMP JUMPDEST JUMPDEST POP SWAP1 POP PUSH2 0x1F1 SWAP2 SWAP1 PUSH2 0x1F5 JUMP JUMPDEST POP SWAP1 JUMP JUMPDEST JUMPDEST DUP1 DUP3 GT ISZERO PUSH2 0x20E JUMPI PUSH1 0x0 DUP2 PUSH1 0x0 SWAP1 SSTORE POP PUSH1 0x1 ADD PUSH2 0x1F6 JUMP JUMPDEST POP SWAP1 JUMP JUMPDEST PUSH1 0x0 PUSH2 0x225 PUSH2 0x220 DUP5 PUSH2 0x3A0 JUMP JUMPDEST PUSH2 0x37B JUMP JUMPDEST SWAP1 POP DUP3 DUP2 MSTORE PUSH1 0x20 DUP2 ADD DUP5 DUP5 DUP5 ADD GT ISZERO PUSH2 0x241 JUMPI PUSH2 0x240 PUSH2 0x76D JUMP JUMPDEST JUMPDEST PUSH2 0x24C DUP5 DUP3 DUP6 PUSH2 0x636 JUMP JUMPDEST POP SWAP4 SWAP3 POP POP POP JUMP JUMPDEST PUSH1 0x0 DUP2 CALLDATALOAD SWAP1 POP PUSH2 0x263 DUP2 PUSH2 0x78D JUMP JUMPDEST SWAP3 SWAP2 POP POP JUMP JUMPDEST PUSH1 0x0 DUP3 PUSH1 0x1F DUP4 ADD SLT PUSH2 0x27E JUMPI PUSH2 0x27D PUSH2 0x768 JUMP JUMPDEST JUMPDEST DUP2 CALLDATALOAD PUSH2 0x28E DUP5 DUP3 PUSH1 0x20 DUP7 ADD PUSH2 0x212 JUMP JUMPDEST SWAP2 POP POP SWAP3 SWAP2 POP POP JUMP JUMPDEST PUSH1 0x0 DUP1 PUSH1 0x40 DUP4 DUP6 SUB SLT ISZERO PUSH2 0x2AE JUMPI PUSH2 0x2AD PUSH2 0x777 JUMP JUMPDEST JUMPDEST PUSH1 0x0 PUSH2 0x2BC DUP6 DUP3 DUP7 ADD PUSH2 0x254 JUMP JUMPDEST SWAP3 POP POP PUSH1 0x20 PUSH2 0x2CD DUP6 DUP3 DUP7 ADD PUSH2 0x254 JUMP JUMPDEST SWAP2 POP POP SWAP3 POP SWAP3 SWAP1 POP JUMP JUMPDEST PUSH1 0x0 PUSH1 0x20 DUP3 DUP5 SUB SLT ISZERO PUSH2 0x2ED JUMPI PUSH2 0x2EC PUSH2 0x777 JUMP JUMPDEST JUMPDEST PUSH1 0x0 DUP3 ADD CALLDATALOAD PUSH8 0xFFFFFFFFFFFFFFFF DUP2 GT ISZERO PUSH2 0x30B JUMPI PUSH2 0x30A PUSH2 0x772 JUMP JUMPDEST JUMPDEST PUSH2 0x317 DUP5 DUP3 DUP6 ADD PUSH2 0x269 JUMP JUMPDEST SWAP2 POP POP SWAP3 SWAP2 POP POP JUMP JUMPDEST PUSH1 0x0 PUSH2 0x32B DUP3 PUSH2 0x3D1 JUMP JUMPDEST PUSH2 0x335 DUP2 DUP6 PUSH2 0x3DC JUMP JUMPDEST SWAP4 POP PUSH2 0x345 DUP2 DUP6 PUSH1 0x20 DUP7 ADD PUSH2 0x645 JUMP JUMPDEST PUSH2 0x34E DUP2 PUSH2 0x77C JUMP JUMPDEST DUP5 ADD SWAP2 POP POP SWAP3 SWAP2 POP POP JUMP JUMPDEST PUSH1 0x0 PUSH1 0x20 DUP3 ADD SWAP1 POP DUP2 DUP2 SUB PUSH1 0x0 DUP4 ADD MSTORE PUSH2 0x373 DUP2 DUP5 PUSH2 0x320 JUMP JUMPDEST SWAP1 POP SWAP3 SWAP2 POP POP JUMP JUMPDEST PUSH1 0x0 PUSH2 0x385 PUSH2 0x396 JUMP JUMPDEST SWAP1 POP PUSH2 0x391 DUP3 DUP3 PUSH2 0x6AA JUMP JUMPDEST SWAP2 SWAP1 POP JUMP JUMPDEST PUSH1 0x0 PUSH1 0x40 MLOAD SWAP1 POP SWAP1 JUMP JUMPDEST PUSH1 0x0 PUSH8 0xFFFFFFFFFFFFFFFF DUP3 GT ISZERO PUSH2 0x3BB JUMPI PUSH2 0x3BA PUSH2 0x739 JUMP JUMPDEST JUMPDEST PUSH2 0x3C4 DUP3 PUSH2 0x77C JUMP JUMPDEST SWAP1 POP PUSH1 0x20 DUP2 ADD SWAP1 POP SWAP2 SWAP1 POP JUMP JUMPDEST PUSH1 0x0 DUP2 MLOAD SWAP1 POP SWAP2 SWAP1 POP JUMP JUMPDEST PUSH1 0x0 DUP3 DUP3 MSTORE PUSH1 0x20 DUP3 ADD SWAP1 POP SWAP3 SWAP2 POP POP JUMP JUMPDEST PUSH1 0x0 PUSH2 0x3F8 DUP3 PUSH2 0x62C JUMP JUMPDEST SWAP2 POP PUSH2 0x403 DUP4 PUSH2 0x62C JUMP JUMPDEST SWAP3 POP DUP2 PUSH32 0x7FFFFFFFFFFFFFFFFFFFFFFFFFFFFFFFFFFFFFFFFFFFFFFFFFFFFFFFFFFFFFFF SUB DUP4 SGT PUSH1 0x0 DUP4 SLT ISZERO AND ISZERO PUSH2 0x43E JUMPI PUSH2 0x43D PUSH2 0x6DB JUMP JUMPDEST JUMPDEST DUP2 PUSH32 0x8000000000000000000000000000000000000000000000000000000000000000 SUB DUP4 SLT PUSH1 0x0 DUP4 SLT AND ISZERO PUSH2 0x476 JUMPI PUSH2 0x475 PUSH2 0x6DB JUMP JUMPDEST JUMPDEST DUP3 DUP3 ADD SWAP1 POP SWAP3 SWAP2 POP POP JUMP JUMPDEST PUSH1 0x0 PUSH2 0x48C DUP3 PUSH2 0x62C JUMP JUMPDEST SWAP2 POP PUSH2 0x497 DUP4 PUSH2 0x62C JUMP JUMPDEST SWAP3 POP DUP3 PUSH32 0x7FFFFFFFFFFFFFFFFFFFFFFFFFFFFFFFFFFFFFFFFFFFFFFFFFFFFFFFFFFFFFFF DIV DUP3 GT PUSH1 0x0 DUP5 SGT PUSH1 0x0 DUP5 SGT AND AND ISZERO PUSH2 0x4D6 JUMPI PUSH2 0x4D5 PUSH2 0x6DB JUMP JUMPDEST JUMPDEST DUP2 PUSH32 0x8000000000000000000000000000000000000000000000000000000000000000 SDIV DUP4 SLT PUSH1 0x0 DUP5 SLT PUSH1 0x0 DUP5 SGT AND AND ISZERO PUSH2 0x513 JUMPI PUSH2 0x512 PUSH2 0x6DB JUMP JUMPDEST JUMPDEST DUP3 PUSH32 0x8000000000000000000000000000000000000000000000000000000000000000 SDIV DUP3 SLT PUSH1 0x0 DUP5 SGT PUSH1 0x0 DUP5 SLT AND AND ISZERO PUSH2 0x550 JUMPI PUSH2 0x54F PUSH2 0x6DB JUMP JUMPDEST JUMPDEST DUP3 PUSH32 0x7FFFFFFFFFFFFFFFFFFFFFFFFFFFFFFFFFFFFFFFFFFFFFFFFFFFFFFFFFFFFFFF SDIV DUP3 SLT PUSH1 0x0 DUP5 SLT PUSH1 0x0 DUP5 SLT AND AND ISZERO PUSH2 0x58D JUMPI PUSH2 0x58C PUSH2 0x6DB JUMP JUMPDEST JUMPDEST DUP3 DUP3 MUL SWAP1 POP SWAP3 SWAP2 POP POP JUMP JUMPDEST PUSH1 0x0 PUSH2 0x5A3 DUP3 PUSH2 0x62C JUMP JUMPDEST SWAP2 POP PUSH2 0x5AE DUP4 PUSH2 0x62C JUMP JUMPDEST SWAP3 POP DUP3 PUSH32 0x8000000000000000000000000000000000000000000000000000000000000000 ADD DUP3 SLT PUSH1 0x0 DUP5 SLT ISZERO AND ISZERO PUSH2 0x5E9 JUMPI PUSH2 0x5E8 PUSH2 0x6DB JUMP JUMPDEST JUMPDEST DUP3 PUSH32 0x7FFFFFFFFFFFFFFFFFFFFFFFFFFFFFFFFFFFFFFFFFFFFFFFFFFFFFFFFFFFFFFF ADD DUP3 SGT PUSH1 0x0 DUP5 SLT AND ISZERO PUSH2 0x621 JUMPI PUSH2 0x620 PUSH2 0x6DB JUMP JUMPDEST JUMPDEST DUP3 DUP3 SUB SWAP1 POP SWAP3 SWAP2 POP POP JUMP JUMPDEST PUSH1 0x0 DUP2 SWAP1 POP SWAP2 SWAP1 POP JUMP JUMPDEST DUP3 DUP2 DUP4 CALLDATACOPY PUSH1 0x0 DUP4 DUP4 ADD MSTORE POP POP POP JUMP JUMPDEST PUSH1 0x0 JUMPDEST DUP4 DUP2 LT ISZERO PUSH2 0x663 JUMPI DUP1 DUP3 ADD MLOAD DUP2 DUP5 ADD MSTORE PUSH1 0x20 DUP2 ADD SWAP1 POP PUSH2 0x648 JUMP JUMPDEST DUP4 DUP2 GT ISZERO PUSH2 0x672 JUMPI PUSH1 0x0 DUP5 DUP5 ADD MSTORE JUMPDEST POP POP POP POP JUMP JUMPDEST PUSH1 0x0 PUSH1 0x2 DUP3 DIV SWAP1 POP PUSH1 0x1 DUP3 AND DUP1 PUSH2 0x690 JUMPI PUSH1 0x7F DUP3 AND SWAP2 POP JUMPDEST PUSH1 0x20 DUP3 LT DUP2 EQ ISZERO PUSH2 0x6A4 JUMPI PUSH2 0x6A3 PUSH2 0x70A JUMP JUMPDEST JUMPDEST POP SWAP2 SWAP1 POP JUMP JUMPDEST PUSH2 0x6B3 DUP3 PUSH2 0x77C JUMP JUMPDEST DUP2 ADD DUP2 DUP2 LT PUSH8 0xFFFFFFFFFFFFFFFF DUP3 GT OR ISZERO PUSH2 0x6D2 JUMPI PUSH2 0x6D1 PUSH2 0x739 JUMP JUMPDEST JUMPDEST DUP1 PUSH1 0x40 MSTORE POP POP POP JUMP JUMPDEST PUSH32 0x4E487B7100000000000000000000000000000000000000000000000000000000 PUSH1 0x0 MSTORE PUSH1 0x11 PUSH1 0x4 MSTORE PUSH1 0x24 PUSH1 0x0 REVERT JUMPDEST PUSH32 0x4E487B7100000000000000000000000000000000000000000000000000000000 PUSH1 0x0 MSTORE PUSH1 0x22 PUSH1 0x4 MSTORE PUSH1 0x24 PUSH1 0x0 REVERT JUMPDEST PUSH32 0x4E487B7100000000000000000000000000000000000000000000000000000000 PUSH1 0x0 MSTORE PUSH1 0x41 PUSH1 0x4 MSTORE PUSH1 0x24 PUSH1 0x0 REVERT JUMPDEST PUSH1 0x0 DUP1 REVERT JUMPDEST PUSH1 0x0 DUP1 REVERT JUMPDEST PUSH1 0x0 DUP1 REVERT JUMPDEST PUSH1 0x0 DUP1 REVERT JUMPDEST PUSH1 0x0 PUSH1 0x1F NOT PUSH1 0x1F DUP4 ADD AND SWAP1 POP SWAP2 SWAP1 POP JUMP JUMPDEST PUSH2 0x796 DUP2 PUSH2 0x62C JUMP JUMPDEST DUP2 EQ PUSH2 0x7A1 JUMPI PUSH1 0x0 DUP1 REVERT JUMPDEST POP JUMP INVALID LOG2 PUSH5 0x6970667358 0x22 SLT KECCAK256 0xD5 LT PUSH6 0xDE22DB1F7593 CALLDATASIZE PUSH30 0x37CBB16BFB997C62A1499E72BB54BF65873735F3E364736F6C6343000807 STOP CALLER "
				},
				"gasEstimates": {
					"creation": {
						"codeDepositCost": "402000",
						"executionCost": "infinite",
						"totalCost": "infinite"
					},
					"external": {
						"doMath(int256,int256)": "infinite",
						"message()": "infinite",
						"setMessage(string)": "infinite"
					}
				},
				"methodIdentifiers": {
					"doMath(int256,int256)": "d545dd8c",
					"message()": "e21f37ce",
					"setMessage(string)": "368b8772"
				}
			},
			"userdoc": {
				"kind": "user",
				"methods": {},
				"version": 1
			}
		}
	}
}